{
  "contractName": "LetterOfCredit",
  "abi": [
    {
      "constant": true,
      "inputs": [],
      "name": "boe",
      "outputs": [
        {
          "name": "holder",
          "type": "address"
        },
        {
          "name": "contractPrice",
          "type": "uint256"
        }
      ],
      "payable": false,
      "stateMutability": "view",
      "type": "function"
    },
    {
      "constant": true,
      "inputs": [],
      "name": "bol",
      "outputs": [
        {
          "name": "holder",
          "type": "address"
        }
      ],
      "payable": false,
      "stateMutability": "view",
      "type": "function"
    },
    {
      "constant": false,
      "inputs": [],
      "name": "renounceOwnership",
      "outputs": [],
      "payable": false,
      "stateMutability": "nonpayable",
      "type": "function"
    },
    {
      "constant": true,
      "inputs": [],
      "name": "owner",
      "outputs": [
        {
          "name": "",
          "type": "address"
        }
      ],
      "payable": false,
      "stateMutability": "view",
      "type": "function"
    },
    {
      "constant": false,
      "inputs": [
        {
          "name": "_newOwner",
          "type": "address"
        }
      ],
      "name": "transferOwnership",
      "outputs": [],
      "payable": false,
      "stateMutability": "nonpayable",
      "type": "function"
    },
    {
      "inputs": [],
      "payable": false,
      "stateMutability": "nonpayable",
      "type": "constructor"
    },
    {
      "anonymous": false,
      "inputs": [
        {
          "indexed": true,
          "name": "previousOwner",
          "type": "address"
        }
      ],
      "name": "OwnershipRenounced",
      "type": "event"
    },
    {
      "anonymous": false,
      "inputs": [
        {
          "indexed": true,
          "name": "previousOwner",
          "type": "address"
        },
        {
          "indexed": true,
          "name": "newOwner",
          "type": "address"
        }
      ],
      "name": "OwnershipTransferred",
      "type": "event"
    },
    {
      "constant": false,
      "inputs": [
        {
          "name": "exporterAddr",
          "type": "address"
        },
        {
          "name": "importerAddr",
          "type": "address"
        },
        {
          "name": "shipperAddr",
          "type": "address"
        },
        {
          "name": "inspectorAddr",
          "type": "address"
        },
        {
          "name": "issuingBankAddr",
          "type": "address"
        },
        {
          "name": "contractVal",
          "type": "uint256"
        }
      ],
      "name": "createBOE",
      "outputs": [],
      "payable": false,
      "stateMutability": "nonpayable",
      "type": "function"
    },
    {
      "constant": false,
      "inputs": [],
      "name": "issueLetterOfCredit",
      "outputs": [],
      "payable": true,
      "stateMutability": "payable",
      "type": "function"
    },
    {
      "constant": false,
      "inputs": [
        {
          "name": "sellerInspector",
          "type": "address"
        }
      ],
      "name": "assignInspectionSeller",
      "outputs": [],
      "payable": false,
      "stateMutability": "nonpayable",
      "type": "function"
    },
    {
      "constant": false,
      "inputs": [],
      "name": "requestInspection",
      "outputs": [],
      "payable": false,
      "stateMutability": "nonpayable",
      "type": "function"
    },
    {
      "constant": false,
      "inputs": [],
      "name": "acceptInspectionForExporter",
      "outputs": [],
      "payable": false,
      "stateMutability": "nonpayable",
      "type": "function"
    },
    {
      "constant": false,
      "inputs": [],
      "name": "certifyCertOfInspectionForExporter",
      "outputs": [],
      "payable": false,
      "stateMutability": "nonpayable",
      "type": "function"
    },
    {
      "constant": false,
      "inputs": [],
      "name": "requestForShipment",
      "outputs": [],
      "payable": false,
      "stateMutability": "nonpayable",
      "type": "function"
    },
    {
      "constant": false,
      "inputs": [],
      "name": "acceptShipment",
      "outputs": [],
      "payable": false,
      "stateMutability": "nonpayable",
      "type": "function"
    },
    {
      "constant": false,
      "inputs": [],
      "name": "completeShipment",
      "outputs": [],
      "payable": false,
      "stateMutability": "nonpayable",
      "type": "function"
    },
    {
      "constant": false,
      "inputs": [],
      "name": "certifyCertOfInspectionForImporter",
      "outputs": [],
      "payable": false,
      "stateMutability": "nonpayable",
      "type": "function"
    },
    {
      "constant": false,
      "inputs": [],
      "name": "makePayment",
      "outputs": [],
      "payable": true,
      "stateMutability": "payable",
      "type": "function"
    },
    {
      "constant": true,
      "inputs": [],
      "name": "getBalance",
      "outputs": [
        {
          "name": "",
          "type": "uint256"
        }
      ],
      "payable": false,
      "stateMutability": "view",
      "type": "function"
    },
    {
      "constant": true,
      "inputs": [
        {
          "name": "_a",
          "type": "string"
        },
        {
          "name": "_b",
          "type": "string"
        }
      ],
      "name": "equal",
      "outputs": [
        {
          "name": "",
          "type": "bool"
        }
      ],
      "payable": false,
      "stateMutability": "pure",
      "type": "function"
    },
    {
      "constant": true,
      "inputs": [],
      "name": "getcontractPrice",
      "outputs": [
        {
          "name": "value",
          "type": "uint256"
        }
      ],
      "payable": false,
      "stateMutability": "view",
      "type": "function"
    },
    {
      "constant": true,
      "inputs": [],
      "name": "getExporter",
      "outputs": [
        {
          "name": "holder",
          "type": "address"
        }
      ],
      "payable": false,
      "stateMutability": "view",
      "type": "function"
    },
    {
      "constant": true,
      "inputs": [],
      "name": "getImporter",
      "outputs": [
        {
          "name": "holder",
          "type": "address"
        }
      ],
      "payable": false,
      "stateMutability": "view",
      "type": "function"
    },
    {
      "constant": true,
      "inputs": [],
      "name": "getBOEHolder",
      "outputs": [
        {
          "name": "holder",
          "type": "address"
        }
      ],
      "payable": false,
      "stateMutability": "view",
      "type": "function"
    },
    {
      "constant": true,
      "inputs": [],
      "name": "getBOLHolder",
      "outputs": [
        {
          "name": "holder",
          "type": "address"
        }
      ],
      "payable": false,
      "stateMutability": "view",
      "type": "function"
    },
    {
      "constant": true,
      "inputs": [],
      "name": "getinspectorForSeller",
      "outputs": [
        {
          "name": "holder",
          "type": "address"
        }
      ],
      "payable": false,
      "stateMutability": "view",
      "type": "function"
    },
    {
      "constant": true,
      "inputs": [],
      "name": "getissuingBank",
      "outputs": [
        {
          "name": "holder",
          "type": "address"
        }
      ],
      "payable": false,
      "stateMutability": "view",
      "type": "function"
    },
    {
      "constant": true,
      "inputs": [],
      "name": "getinspectorForBuyer",
      "outputs": [
        {
          "name": "holder",
          "type": "address"
        }
      ],
      "payable": false,
      "stateMutability": "view",
      "type": "function"
    },
    {
      "constant": true,
      "inputs": [],
      "name": "getInspectionForExporterStatus",
      "outputs": [
        {
          "name": "",
          "type": "string"
        }
      ],
      "payable": false,
      "stateMutability": "view",
      "type": "function"
    },
    {
      "constant": true,
      "inputs": [],
      "name": "getInspectionForImporterStatus",
      "outputs": [
        {
          "name": "",
          "type": "string"
        }
      ],
      "payable": false,
      "stateMutability": "view",
      "type": "function"
    },
    {
      "constant": true,
      "inputs": [],
      "name": "getShipmentStatus",
      "outputs": [
        {
          "name": "",
          "type": "string"
        }
      ],
      "payable": false,
      "stateMutability": "view",
      "type": "function"
    },
    {
      "constant": true,
      "inputs": [],
      "name": "getcoiFromExporterCertified",
      "outputs": [
        {
          "name": "",
          "type": "bool"
        }
      ],
      "payable": false,
      "stateMutability": "view",
      "type": "function"
    },
    {
      "constant": true,
      "inputs": [],
      "name": "getcoiFromExporterSignature",
      "outputs": [
        {
          "name": "",
          "type": "address"
        }
      ],
      "payable": false,
      "stateMutability": "view",
      "type": "function"
    },
    {
      "constant": true,
      "inputs": [],
      "name": "getcoiFromImporterCertified",
      "outputs": [
        {
          "name": "",
          "type": "bool"
        }
      ],
      "payable": false,
      "stateMutability": "view",
      "type": "function"
    },
    {
      "constant": true,
      "inputs": [],
      "name": "getcoiFromImporterSignature",
      "outputs": [
        {
          "name": "",
          "type": "address"
        }
      ],
      "payable": false,
      "stateMutability": "view",
      "type": "function"
    }
  ],
  "bytecode": "0x608060405234801561001057600080fd5b50336000806101000a81548173ffffffffffffffffffffffffffffffffffffffff021916908373ffffffffffffffffffffffffffffffffffffffff1602179055506134df806100606000396000f3006080604052600436106101a1576000357c0100000000000000000000000000000000000000000000000000000000900463ffffffff1680630a9b39c9146101a65780630e7fbcdf146101fd5780630f5c06f01461025457806312065fe0146102b2578063145132d3146102dd578063194a044f146102f45780632c53dd7a1461034b578063385c37a5146103a25780633c35c9e7146103f9578063435d47a61461048957806346bdca9a146104935780634f50e7f01461055a5780635124e92f146105b1578063715018a614610608578063723f99a51461061f578063772405c51461063657806384bb7d211461066157806385ecbe961461067857806386ae2fb11461068f57806389b19e4b146106a65780638b913e99146107365780638da5cb5b146107795780638fa374cd146107d05780639a12b6f5146107ff5780639e08d9e714610856578063a64e9fa61461086d578063a822e8fd146108c4578063ae4391fb14610991578063afb623ec146109c0578063bdfc4cbe14610a17578063d2114db214610aa7578063d8d7970014610abe578063f2fde38b14610ac8575b600080fd5b3480156101b257600080fd5b506101bb610b0b565b604051808273ffffffffffffffffffffffffffffffffffffffff1673ffffffffffffffffffffffffffffffffffffffff16815260200191505060405180910390f35b34801561020957600080fd5b50610212610b38565b604051808273ffffffffffffffffffffffffffffffffffffffff1673ffffffffffffffffffffffffffffffffffffffff16815260200191505060405180910390f35b34801561026057600080fd5b50610269610b65565b604051808373ffffffffffffffffffffffffffffffffffffffff1673ffffffffffffffffffffffffffffffffffffffff1681526020018281526020019250505060405180910390f35b3480156102be57600080fd5b506102c7610b97565b6040518082815260200191505060405180910390f35b3480156102e957600080fd5b506102f2610bb6565b005b34801561030057600080fd5b50610309610e06565b604051808273ffffffffffffffffffffffffffffffffffffffff1673ffffffffffffffffffffffffffffffffffffffff16815260200191505060405180910390f35b34801561035757600080fd5b50610360610e8c565b604051808273ffffffffffffffffffffffffffffffffffffffff1673ffffffffffffffffffffffffffffffffffffffff16815260200191505060405180910390f35b3480156103ae57600080fd5b506103b7610eb9565b604051808273ffffffffffffffffffffffffffffffffffffffff1673ffffffffffffffffffffffffffffffffffffffff16815260200191505060405180910390f35b34801561040557600080fd5b5061040e610ee5565b6040518080602001828103825283818151815260200191508051906020019080838360005b8381101561044e578082015181840152602081019050610433565b50505050905090810190601f16801561047b5780820380516001836020036101000a031916815260200191505b509250505060405180910390f35b610491610f87565b005b34801561049f57600080fd5b50610540600480360381019080803590602001908201803590602001908080601f0160208091040260200160405190810160405280939291908181526020018383808284378201915050505050509192919290803590602001908201803590602001908080601f0160208091040260200160405190810160405280939291908181526020018383808284378201915050505050509192919290505050611120565b604051808215151515815260200191505060405180910390f35b34801561056657600080fd5b5061056f611204565b604051808273ffffffffffffffffffffffffffffffffffffffff1673ffffffffffffffffffffffffffffffffffffffff16815260200191505060405180910390f35b3480156105bd57600080fd5b506105c6611231565b604051808273ffffffffffffffffffffffffffffffffffffffff1673ffffffffffffffffffffffffffffffffffffffff16815260200191505060405180910390f35b34801561061457600080fd5b5061061d61125b565b005b34801561062b57600080fd5b5061063461135d565b005b34801561064257600080fd5b5061064b611613565b6040518082815260200191505060405180910390f35b34801561066d57600080fd5b5061067661167c565b005b34801561068457600080fd5b5061068d6118f2565b005b34801561069b57600080fd5b506106a4611b42565b005b3480156106b257600080fd5b506106bb611cb1565b6040518080602001828103825283818151815260200191508051906020019080838360005b838110156106fb5780820151818401526020810190506106e0565b50505050905090810190601f1680156107285780820380516001836020036101000a031916815260200191505b509250505060405180910390f35b34801561074257600080fd5b50610777600480360381019080803573ffffffffffffffffffffffffffffffffffffffff169060200190929190505050611d53565b005b34801561078557600080fd5b5061078e611ec8565b604051808273ffffffffffffffffffffffffffffffffffffffff1673ffffffffffffffffffffffffffffffffffffffff16815260200191505060405180910390f35b3480156107dc57600080fd5b506107e5611eed565b604051808215151515815260200191505060405180910390f35b34801561080b57600080fd5b50610814611f07565b604051808273ffffffffffffffffffffffffffffffffffffffff1673ffffffffffffffffffffffffffffffffffffffff16815260200191505060405180910390f35b34801561086257600080fd5b5061086b611f31565b005b34801561087957600080fd5b506108826120a0565b604051808273ffffffffffffffffffffffffffffffffffffffff1673ffffffffffffffffffffffffffffffffffffffff16815260200191505060405180910390f35b3480156108d057600080fd5b5061098f600480360381019080803573ffffffffffffffffffffffffffffffffffffffff169060200190929190803573ffffffffffffffffffffffffffffffffffffffff169060200190929190803573ffffffffffffffffffffffffffffffffffffffff169060200190929190803573ffffffffffffffffffffffffffffffffffffffff169060200190929190803573ffffffffffffffffffffffffffffffffffffffff16906020019092919080359060200190929190505050612126565b005b34801561099d57600080fd5b506109a6612824565b604051808215151515815260200191505060405180910390f35b3480156109cc57600080fd5b506109d561283e565b604051808273ffffffffffffffffffffffffffffffffffffffff1673ffffffffffffffffffffffffffffffffffffffff16815260200191505060405180910390f35b348015610a2357600080fd5b50610a2c612868565b6040518080602001828103825283818151815260200191508051906020019080838360005b83811015610a6c578082015181840152602081019050610a51565b50505050905090810190601f168015610a995780820380516001836020036101000a031916815260200191505b509250505060405180910390f35b348015610ab357600080fd5b50610abc61290a565b005b610ac6612a9f565b005b348015610ad457600080fd5b50610b09600480360381019080803573ffffffffffffffffffffffffffffffffffffffff169060200190929190505050612faa565b005b6000600e60000160009054906101000a900473ffffffffffffffffffffffffffffffffffffffff16905090565b6000601160000160019054906101000a900473ffffffffffffffffffffffffffffffffffffffff16905090565b600e8060000160009054906101000a900473ffffffffffffffffffffffffffffffffffffffff16908060010154905082565b60003073ffffffffffffffffffffffffffffffffffffffff1631905090565b610c8f60088054600181600116156101000203166002900480601f016020809104026020016040519081016040528092919081815260200182805460018160011615610100020316600290048015610c4f5780601f10610c2457610100808354040283529160200191610c4f565b820191906000526020600020905b815481529060010190602001808311610c3257829003601f168201915b50505050506040805190810160405280600981526020017f5265717565737465640000000000000000000000000000000000000000000000815250611120565b8015610ce85750600660009054906101000a900473ffffffffffffffffffffffffffffffffffffffff1673ffffffffffffffffffffffffffffffffffffffff163373ffffffffffffffffffffffffffffffffffffffff16145b600c6000815481101515610cf857fe5b90600052602060002001901515610dc7576040517f08c379a00000000000000000000000000000000000000000000000000000000081526004018080602001828103825283818154600181600116156101000203166002900481526020019150805460018160011615610100020316600290048015610db85780601f10610d8d57610100808354040283529160200191610db8565b820191906000526020600020905b815481529060010190602001808311610d9b57829003601f168201915b50509250505060405180910390fd5b50600b6001815481101515610dd857fe5b9060005260206000200160089080546001816001161561010002031660029004610e03929190613173565b50565b6000600460009054906101000a900473ffffffffffffffffffffffffffffffffffffffff1673ffffffffffffffffffffffffffffffffffffffff163373ffffffffffffffffffffffffffffffffffffffff16141515610e6457600080fd5b600160009054906101000a900473ffffffffffffffffffffffffffffffffffffffff16905090565b6000601260000160019054906101000a900473ffffffffffffffffffffffffffffffffffffffff16905090565b60108060000160009054906101000a900473ffffffffffffffffffffffffffffffffffffffff16905081565b606060078054600181600116156101000203166002900480601f016020809104026020016040519081016040528092919081815260200182805460018160011615610100020316600290048015610f7d5780601f10610f5257610100808354040283529160200191610f7d565b820191906000526020600020905b815481529060010190602001808311610f6057829003601f168201915b5050505050905090565b600460009054906101000a900473ffffffffffffffffffffffffffffffffffffffff1673ffffffffffffffffffffffffffffffffffffffff163373ffffffffffffffffffffffffffffffffffffffff1614600c6000815481101515610fe857fe5b906000526020600020019015156110b7576040517f08c379a000000000000000000000000000000000000000000000000000000000815260040180806020018281038252838181546001816001161561010002031660029004815260200191508054600181600116156101000203166002900480156110a85780601f1061107d576101008083540402835291602001916110a8565b820191906000526020600020905b81548152906001019060200180831161108b57829003601f168201915b50509250505060405180910390fd5b50600160009054906101000a900473ffffffffffffffffffffffffffffffffffffffff16600e60000160006101000a81548173ffffffffffffffffffffffffffffffffffffffff021916908373ffffffffffffffffffffffffffffffffffffffff160217905550565b6000606080849150839050806040518082805190602001908083835b602083101515611161578051825260208201915060208101905060208303925061113c565b6001836020036101000a038019825116818451168082178552505050505050905001915050604051809103902060001916826040518082805190602001908083835b6020831015156111c857805182526020820191506020810190506020830392506111a3565b6001836020036101000a038019825116818451168082178552505050505050905001915050604051809103902060001916149250505092915050565b6000601060000160009054906101000a900473ffffffffffffffffffffffffffffffffffffffff16905090565b6000600560009054906101000a900473ffffffffffffffffffffffffffffffffffffffff16905090565b6000809054906101000a900473ffffffffffffffffffffffffffffffffffffffff1673ffffffffffffffffffffffffffffffffffffffff163373ffffffffffffffffffffffffffffffffffffffff161415156112b657600080fd5b6000809054906101000a900473ffffffffffffffffffffffffffffffffffffffff1673ffffffffffffffffffffffffffffffffffffffff167ff8df31144d9c2f0f6b59d69b8b98abd5459d07f2742c4df920b25aae33c6482060405160405180910390a260008060006101000a81548173ffffffffffffffffffffffffffffffffffffffff021916908373ffffffffffffffffffffffffffffffffffffffff160217905550565b61143660078054600181600116156101000203166002900480601f0160208091040260200160405190810160405280929190818152602001828054600181600116156101000203166002900480156113f65780601f106113cb576101008083540402835291602001916113f6565b820191906000526020600020905b8154815290600101906020018083116113d957829003601f168201915b50505050506040805190810160405280601081526020017f50656e64696e6720536869706d656e7400000000000000000000000000000000815250611120565b801561148f5750600360009054906101000a900473ffffffffffffffffffffffffffffffffffffffff1673ffffffffffffffffffffffffffffffffffffffff163373ffffffffffffffffffffffffffffffffffffffff16145b600c600081548110151561149f57fe5b9060005260206000200190151561156e576040517f08c379a0000000000000000000000000000000000000000000000000000000008152600401808060200182810382528381815460018160011615610100020316600290048152602001915080546001816001161561010002031660029004801561155f5780601f106115345761010080835404028352916020019161155f565b820191906000526020600020905b81548152906001019060200180831161154257829003601f168201915b50509250505060405180910390fd5b50600a600181548110151561157f57fe5b90600052602060002001600790805460018160011615610100020316600290046115aa929190613173565b50600160009054906101000a900473ffffffffffffffffffffffffffffffffffffffff16601060000160006101000a81548173ffffffffffffffffffffffffffffffffffffffff021916908373ffffffffffffffffffffffffffffffffffffffff160217905550565b6000600460009054906101000a900473ffffffffffffffffffffffffffffffffffffffff1673ffffffffffffffffffffffffffffffffffffffff163373ffffffffffffffffffffffffffffffffffffffff1614151561167157600080fd5b600e60010154905090565b61175560088054600181600116156101000203166002900480601f0160208091040260200160405190810160405280929190818152602001828054600181600116156101000203166002900480156117155780601f106116ea57610100808354040283529160200191611715565b820191906000526020600020905b8154815290600101906020018083116116f857829003601f168201915b50505050506040805190810160405280600881526020017f4163636570746564000000000000000000000000000000000000000000000000815250611120565b80156117ae5750600660009054906101000a900473ffffffffffffffffffffffffffffffffffffffff1673ffffffffffffffffffffffffffffffffffffffff163373ffffffffffffffffffffffffffffffffffffffff16145b600c60008154811015156117be57fe5b9060005260206000200190151561188d576040517f08c379a0000000000000000000000000000000000000000000000000000000008152600401808060200182810382528381815460018160011615610100020316600290048152602001915080546001816001161561010002031660029004801561187e5780601f106118535761010080835404028352916020019161187e565b820191906000526020600020905b81548152906001019060200180831161186157829003601f168201915b50509250505060405180910390fd5b506001601160000160006101000a81548160ff02191690831515021790555033601160000160016101000a81548173ffffffffffffffffffffffffffffffffffffffff021916908373ffffffffffffffffffffffffffffffffffffffff160217905550565b6119cb60078054600181600116156101000203166002900480601f01602080910402602001604051908101604052809291908181526020018280546001816001161561010002031660029004801561198b5780601f106119605761010080835404028352916020019161198b565b820191906000526020600020905b81548152906001019060200180831161196e57829003601f168201915b50505050506040805190810160405280600781526020017f496e20506f727400000000000000000000000000000000000000000000000000815250611120565b8015611a245750600360009054906101000a900473ffffffffffffffffffffffffffffffffffffffff1673ffffffffffffffffffffffffffffffffffffffff163373ffffffffffffffffffffffffffffffffffffffff16145b600c6000815481101515611a3457fe5b90600052602060002001901515611b03576040517f08c379a00000000000000000000000000000000000000000000000000000000081526004018080602001828103825283818154600181600116156101000203166002900481526020019150805460018160011615610100020316600290048015611af45780601f10611ac957610100808354040283529160200191611af4565b820191906000526020600020905b815481529060010190602001808311611ad757829003601f168201915b50509250505060405180910390fd5b50600a6002815481101515611b1457fe5b9060005260206000200160079080546001816001161561010002031660029004611b3f929190613173565b50565b600160009054906101000a900473ffffffffffffffffffffffffffffffffffffffff1673ffffffffffffffffffffffffffffffffffffffff163373ffffffffffffffffffffffffffffffffffffffff1614600c6000815481101515611ba357fe5b90600052602060002001901515611c72576040517f08c379a00000000000000000000000000000000000000000000000000000000081526004018080602001828103825283818154600181600116156101000203166002900481526020019150805460018160011615610100020316600290048015611c635780601f10611c3857610100808354040283529160200191611c63565b820191906000526020600020905b815481529060010190602001808311611c4657829003601f168201915b50509250505060405180910390fd5b50600b6000815481101515611c8357fe5b9060005260206000200160089080546001816001161561010002031660029004611cae929190613173565b50565b606060098054600181600116156101000203166002900480601f016020809104026020016040519081016040528092919081815260200182805460018160011615610100020316600290048015611d495780601f10611d1e57610100808354040283529160200191611d49565b820191906000526020600020905b815481529060010190602001808311611d2c57829003601f168201915b5050505050905090565b600160009054906101000a900473ffffffffffffffffffffffffffffffffffffffff1673ffffffffffffffffffffffffffffffffffffffff163373ffffffffffffffffffffffffffffffffffffffff1614600c6000815481101515611db457fe5b90600052602060002001901515611e83576040517f08c379a00000000000000000000000000000000000000000000000000000000081526004018080602001828103825283818154600181600116156101000203166002900481526020019150805460018160011615610100020316600290048015611e745780601f10611e4957610100808354040283529160200191611e74565b820191906000526020600020905b815481529060010190602001808311611e5757829003601f168201915b50509250505060405180910390fd5b5080600660006101000a81548173ffffffffffffffffffffffffffffffffffffffff021916908373ffffffffffffffffffffffffffffffffffffffff16021790555050565b6000809054906101000a900473ffffffffffffffffffffffffffffffffffffffff1681565b6000601160000160009054906101000a900460ff16905090565b6000600660009054906101000a900473ffffffffffffffffffffffffffffffffffffffff16905090565b600160009054906101000a900473ffffffffffffffffffffffffffffffffffffffff1673ffffffffffffffffffffffffffffffffffffffff163373ffffffffffffffffffffffffffffffffffffffff1614600c6000815481101515611f9257fe5b90600052602060002001901515612061576040517f08c379a000000000000000000000000000000000000000000000000000000000815260040180806020018281038252838181546001816001161561010002031660029004815260200191508054600181600116156101000203166002900480156120525780601f1061202757610100808354040283529160200191612052565b820191906000526020600020905b81548152906001019060200180831161203557829003601f168201915b50509250505060405180910390fd5b50600a600081548110151561207257fe5b906000526020600020016007908054600181600116156101000203166002900461209d929190613173565b50565b6000600460009054906101000a900473ffffffffffffffffffffffffffffffffffffffff1673ffffffffffffffffffffffffffffffffffffffff163373ffffffffffffffffffffffffffffffffffffffff161415156120fe57600080fd5b600260009054906101000a900473ffffffffffffffffffffffffffffffffffffffff16905090565b6080604051908101604052806040805190810160405280601081526020017f50656e64696e6720536869706d656e740000000000000000000000000000000081525081526020016040805190810160405280600781526020017f496e20506f72740000000000000000000000000000000000000000000000000081525081526020016040805190810160405280600881526020017f53686970206f757400000000000000000000000000000000000000000000000081525081526020016040805190810160405280600981526020017f436f6c6c65637465640000000000000000000000000000000000000000000000815250815250600a90600461222c9291906131fa565b506060604051908101604052806040805190810160405280600981526020017f526571756573746564000000000000000000000000000000000000000000000081525081526020016040805190810160405280600881526020017f416363657074656400000000000000000000000000000000000000000000000081525081526020016040805190810160405280600881526020017f52656a6563746564000000000000000000000000000000000000000000000000815250815250600b9060036122f892919061325a565b5060408051908101604052806040805190810160405280601881526020017f556e617574686f7269736564205472616e73616374696f6e00000000000000008152508152602001606060405190810160405280602881526020017f53656e742076616c756520646f6573206e6f7420657175616c20436f6e74726181526020017f63742056616c7565000000000000000000000000000000000000000000000000815250815250600c9060026123af9291906132ba565b5085600160006101000a81548173ffffffffffffffffffffffffffffffffffffffff021916908373ffffffffffffffffffffffffffffffffffffffff16021790555084600260006101000a81548173ffffffffffffffffffffffffffffffffffffffff021916908373ffffffffffffffffffffffffffffffffffffffff16021790555083600360006101000a81548173ffffffffffffffffffffffffffffffffffffffff021916908373ffffffffffffffffffffffffffffffffffffffff16021790555082600560006101000a81548173ffffffffffffffffffffffffffffffffffffffff021916908373ffffffffffffffffffffffffffffffffffffffff16021790555081600460006101000a81548173ffffffffffffffffffffffffffffffffffffffff021916908373ffffffffffffffffffffffffffffffffffffffff16021790555061250781670de0b6b3a7640000613011565b600d819055506040805190810160405280600781526020017f64656661756c74000000000000000000000000000000000000000000000000008152506007908051906020019061255892919061331a565b506040805190810160405280600781526020017f64656661756c7400000000000000000000000000000000000000000000000000815250600890805190602001906125a492919061331a565b506040805190810160405280600781526020017f64656661756c7400000000000000000000000000000000000000000000000000815250600990805190602001906125f092919061331a565b50602060405190810160405280600073ffffffffffffffffffffffffffffffffffffffff16815250601060008201518160000160006101000a81548173ffffffffffffffffffffffffffffffffffffffff021916908373ffffffffffffffffffffffffffffffffffffffff1602179055509050506040805190810160405280600073ffffffffffffffffffffffffffffffffffffffff16815260200182815250600e60008201518160000160006101000a81548173ffffffffffffffffffffffffffffffffffffffff021916908373ffffffffffffffffffffffffffffffffffffffff160217905550602082015181600101559050506040805190810160405280600015158152602001600073ffffffffffffffffffffffffffffffffffffffff16815250601160008201518160000160006101000a81548160ff02191690831515021790555060208201518160000160016101000a81548173ffffffffffffffffffffffffffffffffffffffff021916908373ffffffffffffffffffffffffffffffffffffffff1602179055509050506040805190810160405280600015158152602001600073ffffffffffffffffffffffffffffffffffffffff16815250601260008201518160000160006101000a81548160ff02191690831515021790555060208201518160000160016101000a81548173ffffffffffffffffffffffffffffffffffffffff021916908373ffffffffffffffffffffffffffffffffffffffff160217905550905050505050505050565b6000601260000160009054906101000a900460ff16905090565b6000600460009054906101000a900473ffffffffffffffffffffffffffffffffffffffff16905090565b606060088054600181600116156101000203166002900480601f0160208091040260200160405190810160405280929190818152602001828054600181600116156101000203166002900480156129005780601f106128d557610100808354040283529160200191612900565b820191906000526020600020905b8154815290600101906020018083116128e357829003601f168201915b5050505050905090565b600560009054906101000a900473ffffffffffffffffffffffffffffffffffffffff1673ffffffffffffffffffffffffffffffffffffffff163373ffffffffffffffffffffffffffffffffffffffff1614600c600081548110151561296b57fe5b90600052602060002001901515612a3a576040517f08c379a00000000000000000000000000000000000000000000000000000000081526004018080602001828103825283818154600181600116156101000203166002900481526020019150805460018160011615610100020316600290048015612a2b5780601f10612a0057610100808354040283529160200191612a2b565b820191906000526020600020905b815481529060010190602001808311612a0e57829003601f168201915b50509250505060405180910390fd5b506001601260000160006101000a81548160ff02191690831515021790555033601260000160016101000a81548173ffffffffffffffffffffffffffffffffffffffff021916908373ffffffffffffffffffffffffffffffffffffffff160217905550565b3373ffffffffffffffffffffffffffffffffffffffff16600260009054906101000a900473ffffffffffffffffffffffffffffffffffffffff1673ffffffffffffffffffffffffffffffffffffffff16141515612bce57600c6000815481101515612b0657fe5b906000526020600020016040517f08c379a00000000000000000000000000000000000000000000000000000000081526004018080602001828103825283818154600181600116156101000203166002900481526020019150805460018160011615610100020316600290048015612bbf5780601f10612b9457610100808354040283529160200191612bbf565b820191906000526020600020905b815481529060010190602001808311612ba257829003601f168201915b50509250505060405180910390fd5b34600e60010154141515612cb457600c6000815481101515612bec57fe5b906000526020600020016040517f08c379a00000000000000000000000000000000000000000000000000000000081526004018080602001828103825283818154600181600116156101000203166002900481526020019150805460018160011615610100020316600290048015612ca55780601f10612c7a57610100808354040283529160200191612ca5565b820191906000526020600020905b815481529060010190602001808311612c8857829003601f168201915b50509250505060405180910390fd5b600e60000160009054906101000a900473ffffffffffffffffffffffffffffffffffffffff1673ffffffffffffffffffffffffffffffffffffffff166108fc612d08612d0134605d613011565b606461304f565b9081150290604051600060405180830381858888f19350505050158015612d33573d6000803e3d6000fd5b50600560009054906101000a900473ffffffffffffffffffffffffffffffffffffffff1673ffffffffffffffffffffffffffffffffffffffff166108fc612d85612d7e346001613011565b606461304f565b9081150290604051600060405180830381858888f19350505050158015612db0573d6000803e3d6000fd5b50600660009054906101000a900473ffffffffffffffffffffffffffffffffffffffff1673ffffffffffffffffffffffffffffffffffffffff166108fc612e02612dfb346001613011565b606461304f565b9081150290604051600060405180830381858888f19350505050158015612e2d573d6000803e3d6000fd5b50600360009054906101000a900473ffffffffffffffffffffffffffffffffffffffff1673ffffffffffffffffffffffffffffffffffffffff166108fc612e7f612e78346001613011565b606461304f565b9081150290604051600060405180830381858888f19350505050158015612eaa573d6000803e3d6000fd5b50600460009054906101000a900473ffffffffffffffffffffffffffffffffffffffff1673ffffffffffffffffffffffffffffffffffffffff166108fc612efc612ef5346002613011565b606461304f565b9081150290604051600060405180830381858888f19350505050158015612f27573d6000803e3d6000fd5b5033601060000160006101000a81548173ffffffffffffffffffffffffffffffffffffffff021916908373ffffffffffffffffffffffffffffffffffffffff160217905550600a6003815481101515612f7c57fe5b9060005260206000200160079080546001816001161561010002031660029004612fa7929190613173565b50565b6000809054906101000a900473ffffffffffffffffffffffffffffffffffffffff1673ffffffffffffffffffffffffffffffffffffffff163373ffffffffffffffffffffffffffffffffffffffff1614151561300557600080fd5b61300e81613079565b50565b60008060008414156130265760009150613048565b828402905082848281151561303757fe5b0414151561304457600080fd5b8091505b5092915050565b60008060008311151561306157600080fd5b828481151561306c57fe5b0490508091505092915050565b600073ffffffffffffffffffffffffffffffffffffffff168173ffffffffffffffffffffffffffffffffffffffff16141515156130b557600080fd5b8073ffffffffffffffffffffffffffffffffffffffff166000809054906101000a900473ffffffffffffffffffffffffffffffffffffffff1673ffffffffffffffffffffffffffffffffffffffff167f8be0079c531659141344cd1fd0a4f28419497f9722a3daafe3b4186f6b6457e060405160405180910390a3806000806101000a81548173ffffffffffffffffffffffffffffffffffffffff021916908373ffffffffffffffffffffffffffffffffffffffff16021790555050565b828054600181600116156101000203166002900490600052602060002090601f016020900481019282601f106131ac57805485556131e9565b828001600101855582156131e957600052602060002091601f016020900482015b828111156131e85782548255916001019190600101906131cd565b5b5090506131f6919061339a565b5090565b828054828255906000526020600020908101928215613249579160200282015b828111156132485782518290805190602001906132389291906133bf565b509160200191906001019061321a565b5b509050613256919061343f565b5090565b8280548282559060005260206000209081019282156132a9579160200282015b828111156132a85782518290805190602001906132989291906133bf565b509160200191906001019061327a565b5b5090506132b6919061343f565b5090565b828054828255906000526020600020908101928215613309579160200282015b828111156133085782518290805190602001906132f89291906133bf565b50916020019190600101906132da565b5b509050613316919061343f565b5090565b828054600181600116156101000203166002900490600052602060002090601f016020900481019282601f1061335b57805160ff1916838001178555613389565b82800160010185558215613389579182015b8281111561338857825182559160200191906001019061336d565b5b509050613396919061339a565b5090565b6133bc91905b808211156133b85760008160009055506001016133a0565b5090565b90565b828054600181600116156101000203166002900490600052602060002090601f016020900481019282601f1061340057805160ff191683800117855561342e565b8280016001018555821561342e579182015b8281111561342d578251825591602001919060010190613412565b5b50905061343b919061339a565b5090565b61346891905b80821115613464576000818161345b919061346b565b50600101613445565b5090565b90565b50805460018160011615610100020316600290046000825580601f1061349157506134b0565b601f0160209004906000526020600020908101906134af919061339a565b5b505600a165627a7a72305820441a875602e68d0b620cce798128721d1b2407ee38cb5eb5da9d072aec8f42a70029",
  "source": "pragma solidity ^0.4.24;\r\nimport \"./SafeMath.sol\";\r\nimport \"openzeppelin-solidity/contracts/ownership/Ownable.sol\";//usage of library\r\n\r\n\r\ncontract LetterOfCredit is Ownable{\r\n   \r\n    using SafeMath for uint256;\r\n    \r\n    address exporter;\r\n    address importer;\r\n    address shipper;\r\n    address issuingBank;\r\n    address inspectorForBuyer;\r\n    address inspectorForSeller;\r\n    string shipmentStatus; \r\n    string inspectionForExporterStatus;\r\n    string inspectionForImporterStatus;\r\n    string[] shipmentStatusArray;\r\n    string[] inspectionForExporterStatusArray;\r\n    string[] errMsg;\r\n    uint256 contractPrice;\r\n    BillOfExchange public boe; \r\n    BillOfLading public bol;\r\n    CertificateOfInspection coiFromExporter;\r\n    CertificateOfInspection coiFromImporter;\r\n    \r\n   /// event PaymentMade(uint paymentAmt, address payer);\r\n   /// event CertificationDone(bool certified, address sig);\r\n                                            \r\n    struct BillOfExchange {\r\n        address holder;\r\n        uint256 contractPrice; \r\n    }\r\n\r\n    struct BillOfLading {\r\n        address holder;\r\n    }\r\n\r\n    struct CertificateOfInspection {\r\n        bool certified;\r\n        address signature;\r\n    }\r\n\r\n    constructor() public {\r\n    }\r\n\r\n\r\n    function createBOE(address exporterAddr, address importerAddr, address shipperAddr, address inspectorAddr, address issuingBankAddr, uint256 contractVal) public {\r\n        \r\n        shipmentStatusArray = [\"Pending Shipment\", \"In Port\", \"Ship out\", \"Collected\"];\r\n        inspectionForExporterStatusArray=[\"Requested\",\"Accepted\",\"Rejected\"];\r\n\r\n        \r\n        errMsg = [  \r\n                    \"Unauthorised Transaction\",                                 //errMsg[0]\r\n                    \"Sent value does not equal Contract Value\"                 //errMsg[1]\r\n                ];\r\n\r\n        exporter = exporterAddr; \r\n        importer = importerAddr; \r\n        shipper = shipperAddr;\r\n        inspectorForBuyer = inspectorAddr;\r\n        issuingBank=issuingBankAddr;\r\n\r\n        contractPrice = SafeMath.mul(contractVal, 1 ether); // Stores ether value as wei \r\n        shipmentStatus = \"default\";\r\n        inspectionForExporterStatus=\"default\";\r\n        inspectionForImporterStatus=\"default\";\r\n\r\n\r\n        bol = BillOfLading ({\r\n            holder: 0\r\n        });\r\n        \r\n        boe = BillOfExchange({\r\n            holder: 0,\r\n            contractPrice: contractVal\r\n        });\r\n        \r\n        coiFromExporter = CertificateOfInspection({\r\n            certified: false,\r\n            signature: 0\r\n        });\r\n\r\n        coiFromImporter = CertificateOfInspection({\r\n            certified: false,\r\n            signature: 0\r\n        });\r\n\r\n    }\r\n\r\n    /// Issuing bank issues letter of credit///\r\n    function issueLetterOfCredit() public payable {\r\n        require(msg.sender==issuingBank,errMsg[0]);\r\n        boe.holder = exporter;\r\n    }\r\n\r\n    /// Exporter requests inspection ///\r\n    function assignInspectionSeller(address sellerInspector) public {\r\n        require(msg.sender==exporter,errMsg[0]);\r\n        inspectorForSeller=sellerInspector;\r\n    }\r\n\r\n    /// Exporter requests inspection ///\r\n    function requestInspection() public {\r\n        require(msg.sender==exporter,errMsg[0]);\r\n        inspectionForExporterStatus=inspectionForExporterStatusArray[0];\r\n    }\r\n\r\n    /// Inspector accepts inspection ///\r\n    function acceptInspectionForExporter() public {\r\n        require(equal(inspectionForExporterStatus,\"Requested\")&&msg.sender==inspectorForSeller,errMsg[0]);\r\n        inspectionForExporterStatus=inspectionForExporterStatusArray[1];\r\n        /// To do: inspectorForSeller = grab from frontend\r\n    }\r\n\r\n   /// Inspector for exporter inspects ///\r\n    function certifyCertOfInspectionForExporter() public {\r\n        require(equal(inspectionForExporterStatus,\"Accepted\") && msg.sender==inspectorForSeller,errMsg[0]);\r\n        coiFromExporter.certified=true;\r\n        coiFromExporter.signature=msg.sender;\r\n       \r\n       /// emit CertificationDone(coiFromExporter.certified,coiFromExporter.signature);\r\n    }\r\n\r\n    /// Exportor requests shipment ///\r\n    function requestForShipment() public {\r\n        require(msg.sender==exporter,errMsg[0]);\r\n        shipmentStatus = shipmentStatusArray[0]; \r\n    }\r\n    \r\n    /// Shipper accepts shipment and assign exporter to bol holder///\r\n    function acceptShipment() public {\r\n        require(equal(shipmentStatus,\"Pending Shipment\") && msg.sender == shipper,errMsg[0]);\r\n        shipmentStatus = shipmentStatusArray[1]; \r\n        bol.holder=exporter;  \r\n        \r\n    }\r\n\r\n    /// After shipper ship out the goods, changes the goods status to \"Ship out\". ///\r\n    function completeShipment() public{\r\n        require(equal(shipmentStatus,\"In Port\") && msg.sender == shipper,errMsg[0]);\r\n        shipmentStatus = shipmentStatusArray[2];         \r\n    }\r\n\r\n\r\n    /// Inspector for importer inspects ///\r\n    function certifyCertOfInspectionForImporter() public {\r\n\r\n\t\trequire(msg.sender==inspectorForBuyer,errMsg[0]);\r\n    \r\n        coiFromImporter.certified=true;\r\n        coiFromImporter.signature=msg.sender;\r\n     ///   emit CertificationDone(coiFromImporter.certified,coiFromImporter.signature);\r\n    }\r\n\r\n    /// Importer makes payment\r\n    function makePayment() public payable{\r\n           \r\n        if(importer!=msg.sender){\r\n            revert(errMsg[0]);\r\n        }\r\n        if(boe.contractPrice!=msg.value){\r\n            revert(errMsg[0]);\r\n        }     \r\n      \r\n        /// pay exporter 93%\r\n        boe.holder.transfer(SafeMath.div(SafeMath.mul(msg.value,93),100));\r\n        /// pay inspectorForBuyer 1%\r\n        inspectorForBuyer.transfer(SafeMath.div(SafeMath.mul(msg.value,1),100));\r\n        /// pay inspectorForSeller 1%\r\n        inspectorForSeller.transfer(SafeMath.div(SafeMath.mul(msg.value,1),100));\r\n        /// pay shipper 1%\r\n        shipper.transfer(SafeMath.div(SafeMath.mul(msg.value,1),100));\r\n        /// pay issuing bank 2%\r\n        issuingBank.transfer(SafeMath.div(SafeMath.mul(msg.value,2),100));\r\n        /// To do: withdraw function 2% to smart contract\r\n        bol.holder=msg.sender;\r\n        shipmentStatus = shipmentStatusArray[3];  \r\n        ///emit PaymentMade(msg.value, msg.sender);\r\n    } \r\n\r\n\r\n    function getBalance() public view returns (uint256) {\r\n        return address(this).balance;\r\n    }\r\n    \r\n    function equal(string _a, string _b) public pure returns (bool) {\r\n        bytes memory a = bytes(_a);\r\n        bytes memory b = bytes(_b);\r\n\r\n        return keccak256(a) == keccak256(b) ;\r\n    }\r\n\r\n    function getcontractPrice() public view returns (uint value){\r\n        require(msg.sender==issuingBank);\r\n        return boe.contractPrice;\r\n    }\r\n\r\n    function getExporter() public view returns (address holder){\r\n        require(msg.sender==issuingBank);\r\n        return exporter;\r\n    }\r\n\r\n    function getImporter() public view returns (address holder){\r\n        require(msg.sender==issuingBank);\r\n        return importer;\r\n    }\r\n\r\n    function getBOEHolder() public view returns (address holder){\r\n        return boe.holder;\r\n    }\r\n\r\n    function getBOLHolder() public view returns (address holder){\r\n        return bol.holder;\r\n    }\r\n\r\n    function getinspectorForSeller() public view returns (address holder){\r\n        return inspectorForSeller;\r\n    }\r\n\r\n    function getissuingBank() public view returns (address holder){\r\n        return issuingBank;\r\n    }\r\n\r\n    function getinspectorForBuyer() public view returns (address holder){\r\n        return inspectorForBuyer;\r\n    }\r\n\r\n    function getInspectionForExporterStatus()public view returns (string) {\r\n        return inspectionForExporterStatus;\r\n    }\r\n\r\n    function getInspectionForImporterStatus() public view returns (string)  {\r\n        return inspectionForImporterStatus;\r\n    }\r\n\r\n    function getShipmentStatus() public view returns (string)  {\r\n        return shipmentStatus;\r\n    }\r\n\r\n    function getcoiFromExporterCertified() public view returns (bool)  {\r\n        return coiFromExporter.certified;\r\n    }\r\n\r\n    function getcoiFromExporterSignature() public view returns (address)  {\r\n        return coiFromExporter.signature;\r\n    }\r\n\r\n    function getcoiFromImporterCertified() public view returns (bool)  {\r\n        return coiFromImporter.certified;\r\n    }\r\n\r\n    function getcoiFromImporterSignature() public view returns (address)  {\r\n        return coiFromImporter.signature;\r\n    }\r\n\r\n\r\n\r\n\r\n\r\n\r\n\r\n}",
  "sourcePath": "C:\\Users\\ZhenDan\\Desktop\\BC\\blockchain\\Inter-Bank Bill Of Exchange\\contracts\\LetterOfCredit.sol",
  "compiler": {
    "name": "solc",
    "version": "0.4.24+commit.e67f0147.Emscripten.clang"
  },
  "schemaVersion": "2.0.1",
  "updatedAt": "2018-10-23T13:04:47.570Z"
}