{
  "contractName": "LetterOfCredit",
  "abi": [
    {
      "constant": true,
      "inputs": [],
      "name": "boe",
      "outputs": [
        {
          "name": "holder",
          "type": "address"
        },
        {
          "name": "contractPrice",
          "type": "uint256"
        }
      ],
      "payable": false,
      "stateMutability": "view",
      "type": "function"
    },
    {
      "constant": true,
      "inputs": [],
      "name": "bol",
      "outputs": [
        {
          "name": "holder",
          "type": "address"
        }
      ],
      "payable": false,
      "stateMutability": "view",
      "type": "function"
    },
    {
      "constant": false,
      "inputs": [],
      "name": "renounceOwnership",
      "outputs": [],
      "payable": false,
      "stateMutability": "nonpayable",
      "type": "function"
    },
    {
      "constant": true,
      "inputs": [],
      "name": "owner",
      "outputs": [
        {
          "name": "",
          "type": "address"
        }
      ],
      "payable": false,
      "stateMutability": "view",
      "type": "function"
    },
    {
      "constant": false,
      "inputs": [
        {
          "name": "_newOwner",
          "type": "address"
        }
      ],
      "name": "transferOwnership",
      "outputs": [],
      "payable": false,
      "stateMutability": "nonpayable",
      "type": "function"
    },
    {
      "inputs": [],
      "payable": false,
      "stateMutability": "nonpayable",
      "type": "constructor"
    },
    {
      "anonymous": false,
      "inputs": [
        {
          "indexed": true,
          "name": "previousOwner",
          "type": "address"
        }
      ],
      "name": "OwnershipRenounced",
      "type": "event"
    },
    {
      "anonymous": false,
      "inputs": [
        {
          "indexed": true,
          "name": "previousOwner",
          "type": "address"
        },
        {
          "indexed": true,
          "name": "newOwner",
          "type": "address"
        }
      ],
      "name": "OwnershipTransferred",
      "type": "event"
    },
    {
      "constant": false,
      "inputs": [
        {
          "name": "exporterAddr",
          "type": "address"
        },
        {
          "name": "importerAddr",
          "type": "address"
        },
        {
          "name": "shipperAddr",
          "type": "address"
        },
        {
          "name": "inspectorAddr",
          "type": "address"
        },
        {
          "name": "issuingBankAddr",
          "type": "address"
        },
        {
          "name": "contractVal",
          "type": "uint256"
        }
      ],
      "name": "createBOE",
      "outputs": [],
      "payable": false,
      "stateMutability": "nonpayable",
      "type": "function"
    },
    {
      "constant": false,
      "inputs": [],
      "name": "issueLetterOfCredit",
      "outputs": [],
      "payable": true,
      "stateMutability": "payable",
      "type": "function"
    },
    {
      "constant": false,
      "inputs": [],
      "name": "requestInspection",
      "outputs": [],
      "payable": false,
      "stateMutability": "nonpayable",
      "type": "function"
    },
    {
      "constant": false,
      "inputs": [],
      "name": "acceptInspectionForExporter",
      "outputs": [],
      "payable": false,
      "stateMutability": "nonpayable",
      "type": "function"
    },
    {
      "constant": false,
      "inputs": [],
      "name": "certifyCertOfInspectionForExporter",
      "outputs": [],
      "payable": false,
      "stateMutability": "nonpayable",
      "type": "function"
    },
    {
      "constant": false,
      "inputs": [],
      "name": "requestForShipment",
      "outputs": [],
      "payable": false,
      "stateMutability": "nonpayable",
      "type": "function"
    },
    {
      "constant": false,
      "inputs": [],
      "name": "acceptShipment",
      "outputs": [],
      "payable": false,
      "stateMutability": "nonpayable",
      "type": "function"
    },
    {
      "constant": false,
      "inputs": [],
      "name": "completeShipment",
      "outputs": [],
      "payable": false,
      "stateMutability": "nonpayable",
      "type": "function"
    },
    {
      "constant": false,
      "inputs": [],
      "name": "certifyCertOfInspectionForImporter",
      "outputs": [],
      "payable": false,
      "stateMutability": "nonpayable",
      "type": "function"
    },
    {
      "constant": false,
      "inputs": [],
      "name": "makePayment",
      "outputs": [],
      "payable": true,
      "stateMutability": "payable",
      "type": "function"
    },
    {
      "constant": true,
      "inputs": [],
      "name": "getBalance",
      "outputs": [
        {
          "name": "",
          "type": "uint256"
        }
      ],
      "payable": false,
      "stateMutability": "view",
      "type": "function"
    },
    {
      "constant": true,
      "inputs": [
        {
          "name": "_a",
          "type": "string"
        },
        {
          "name": "_b",
          "type": "string"
        }
      ],
      "name": "equal",
      "outputs": [
        {
          "name": "",
          "type": "bool"
        }
      ],
      "payable": false,
      "stateMutability": "pure",
      "type": "function"
    }
  ],
  "bytecode": "0x608060405234801561001057600080fd5b50336000806101000a81548173ffffffffffffffffffffffffffffffffffffffff021916908373ffffffffffffffffffffffffffffffffffffffff160217905550612815806100606000396000f3006080604052600436106100f1576000357c0100000000000000000000000000000000000000000000000000000000900463ffffffff1680630f5c06f0146100f657806312065fe014610154578063145132d31461017f578063385c37a514610196578063435d47a6146101ed57806346bdca9a146101f7578063715018a6146102be578063723f99a5146102d557806384bb7d21146102ec57806385ecbe961461030357806386ae2fb11461031a5780638da5cb5b146103315780639e08d9e714610388578063a822e8fd1461039f578063d2114db21461046c578063d8d7970014610483578063f2fde38b1461048d575b600080fd5b34801561010257600080fd5b5061010b6104d0565b604051808373ffffffffffffffffffffffffffffffffffffffff1673ffffffffffffffffffffffffffffffffffffffff1681526020018281526020019250505060405180910390f35b34801561016057600080fd5b50610169610502565b6040518082815260200191505060405180910390f35b34801561018b57600080fd5b50610194610521565b005b3480156101a257600080fd5b506101ab610718565b604051808273ffffffffffffffffffffffffffffffffffffffff1673ffffffffffffffffffffffffffffffffffffffff16815260200191505060405180910390f35b6101f5610744565b005b34801561020357600080fd5b506102a4600480360381019080803590602001908201803590602001908080601f0160208091040260200160405190810160405280939291908181526020018383808284378201915050505050509192919290803590602001908201803590602001908080601f01602080910402602001604051908101604052809392919081815260200183838082843782019150505050505091929192905050506108dd565b604051808215151515815260200191505060405180910390f35b3480156102ca57600080fd5b506102d36109c1565b005b3480156102e157600080fd5b506102ea610ac3565b005b3480156102f857600080fd5b50610301610d79565b005b34801561030f57600080fd5b50610318610fef565b005b34801561032657600080fd5b5061032f61123f565b005b34801561033d57600080fd5b506103466113ae565b604051808273ffffffffffffffffffffffffffffffffffffffff1673ffffffffffffffffffffffffffffffffffffffff16815260200191505060405180910390f35b34801561039457600080fd5b5061039d6113d3565b005b3480156103ab57600080fd5b5061046a600480360381019080803573ffffffffffffffffffffffffffffffffffffffff169060200190929190803573ffffffffffffffffffffffffffffffffffffffff169060200190929190803573ffffffffffffffffffffffffffffffffffffffff169060200190929190803573ffffffffffffffffffffffffffffffffffffffff169060200190929190803573ffffffffffffffffffffffffffffffffffffffff16906020019092919080359060200190929190505050611542565b005b34801561047857600080fd5b50610481611c40565b005b61048b611dd5565b005b34801561049957600080fd5b506104ce600480360381019080803573ffffffffffffffffffffffffffffffffffffffff1690602001909291905050506122e0565b005b600e8060000160009054906101000a900473ffffffffffffffffffffffffffffffffffffffff16908060010154905082565b60003073ffffffffffffffffffffffffffffffffffffffff1631905090565b6105fa60088054600181600116156101000203166002900480601f0160208091040260200160405190810160405280929190818152602001828054600181600116156101000203166002900480156105ba5780601f1061058f576101008083540402835291602001916105ba565b820191906000526020600020905b81548152906001019060200180831161059d57829003601f168201915b50505050506040805190810160405280600981526020017f52657175657374656400000000000000000000000000000000000000000000008152506108dd565b600c600081548110151561060a57fe5b906000526020600020019015156106d9576040517f08c379a000000000000000000000000000000000000000000000000000000000815260040180806020018281038252838181546001816001161561010002031660029004815260200191508054600181600116156101000203166002900480156106ca5780601f1061069f576101008083540402835291602001916106ca565b820191906000526020600020905b8154815290600101906020018083116106ad57829003601f168201915b50509250505060405180910390fd5b50600b60018154811015156106ea57fe5b90600052602060002001600890805460018160011615610100020316600290046107159291906124a9565b50565b60108060000160009054906101000a900473ffffffffffffffffffffffffffffffffffffffff16905081565b600460009054906101000a900473ffffffffffffffffffffffffffffffffffffffff1673ffffffffffffffffffffffffffffffffffffffff163373ffffffffffffffffffffffffffffffffffffffff1614600c60008154811015156107a557fe5b90600052602060002001901515610874576040517f08c379a000000000000000000000000000000000000000000000000000000000815260040180806020018281038252838181546001816001161561010002031660029004815260200191508054600181600116156101000203166002900480156108655780601f1061083a57610100808354040283529160200191610865565b820191906000526020600020905b81548152906001019060200180831161084857829003601f168201915b50509250505060405180910390fd5b50600160009054906101000a900473ffffffffffffffffffffffffffffffffffffffff16600e60000160006101000a81548173ffffffffffffffffffffffffffffffffffffffff021916908373ffffffffffffffffffffffffffffffffffffffff160217905550565b6000606080849150839050806040518082805190602001908083835b60208310151561091e57805182526020820191506020810190506020830392506108f9565b6001836020036101000a038019825116818451168082178552505050505050905001915050604051809103902060001916826040518082805190602001908083835b6020831015156109855780518252602082019150602081019050602083039250610960565b6001836020036101000a038019825116818451168082178552505050505050905001915050604051809103902060001916149250505092915050565b6000809054906101000a900473ffffffffffffffffffffffffffffffffffffffff1673ffffffffffffffffffffffffffffffffffffffff163373ffffffffffffffffffffffffffffffffffffffff16141515610a1c57600080fd5b6000809054906101000a900473ffffffffffffffffffffffffffffffffffffffff1673ffffffffffffffffffffffffffffffffffffffff167ff8df31144d9c2f0f6b59d69b8b98abd5459d07f2742c4df920b25aae33c6482060405160405180910390a260008060006101000a81548173ffffffffffffffffffffffffffffffffffffffff021916908373ffffffffffffffffffffffffffffffffffffffff160217905550565b610b9c60078054600181600116156101000203166002900480601f016020809104026020016040519081016040528092919081815260200182805460018160011615610100020316600290048015610b5c5780601f10610b3157610100808354040283529160200191610b5c565b820191906000526020600020905b815481529060010190602001808311610b3f57829003601f168201915b50505050506040805190810160405280601081526020017f50656e64696e6720536869706d656e74000000000000000000000000000000008152506108dd565b8015610bf55750600360009054906101000a900473ffffffffffffffffffffffffffffffffffffffff1673ffffffffffffffffffffffffffffffffffffffff163373ffffffffffffffffffffffffffffffffffffffff16145b600c6000815481101515610c0557fe5b90600052602060002001901515610cd4576040517f08c379a00000000000000000000000000000000000000000000000000000000081526004018080602001828103825283818154600181600116156101000203166002900481526020019150805460018160011615610100020316600290048015610cc55780601f10610c9a57610100808354040283529160200191610cc5565b820191906000526020600020905b815481529060010190602001808311610ca857829003601f168201915b50509250505060405180910390fd5b50600a6001815481101515610ce557fe5b9060005260206000200160079080546001816001161561010002031660029004610d109291906124a9565b50600160009054906101000a900473ffffffffffffffffffffffffffffffffffffffff16601060000160006101000a81548173ffffffffffffffffffffffffffffffffffffffff021916908373ffffffffffffffffffffffffffffffffffffffff160217905550565b610e5260088054600181600116156101000203166002900480601f016020809104026020016040519081016040528092919081815260200182805460018160011615610100020316600290048015610e125780601f10610de757610100808354040283529160200191610e12565b820191906000526020600020905b815481529060010190602001808311610df557829003601f168201915b50505050506040805190810160405280600881526020017f41636365707465640000000000000000000000000000000000000000000000008152506108dd565b8015610eab5750600660009054906101000a900473ffffffffffffffffffffffffffffffffffffffff1673ffffffffffffffffffffffffffffffffffffffff163373ffffffffffffffffffffffffffffffffffffffff16145b600c6000815481101515610ebb57fe5b90600052602060002001901515610f8a576040517f08c379a00000000000000000000000000000000000000000000000000000000081526004018080602001828103825283818154600181600116156101000203166002900481526020019150805460018160011615610100020316600290048015610f7b5780601f10610f5057610100808354040283529160200191610f7b565b820191906000526020600020905b815481529060010190602001808311610f5e57829003601f168201915b50509250505060405180910390fd5b506001601160000160006101000a81548160ff02191690831515021790555033601160000160016101000a81548173ffffffffffffffffffffffffffffffffffffffff021916908373ffffffffffffffffffffffffffffffffffffffff160217905550565b6110c860078054600181600116156101000203166002900480601f0160208091040260200160405190810160405280929190818152602001828054600181600116156101000203166002900480156110885780601f1061105d57610100808354040283529160200191611088565b820191906000526020600020905b81548152906001019060200180831161106b57829003601f168201915b50505050506040805190810160405280600881526020017f53686970206f75740000000000000000000000000000000000000000000000008152506108dd565b80156111215750600360009054906101000a900473ffffffffffffffffffffffffffffffffffffffff1673ffffffffffffffffffffffffffffffffffffffff163373ffffffffffffffffffffffffffffffffffffffff16145b600c600081548110151561113157fe5b90600052602060002001901515611200576040517f08c379a000000000000000000000000000000000000000000000000000000000815260040180806020018281038252838181546001816001161561010002031660029004815260200191508054600181600116156101000203166002900480156111f15780601f106111c6576101008083540402835291602001916111f1565b820191906000526020600020905b8154815290600101906020018083116111d457829003601f168201915b50509250505060405180910390fd5b50600a600281548110151561121157fe5b906000526020600020016007908054600181600116156101000203166002900461123c9291906124a9565b50565b600160009054906101000a900473ffffffffffffffffffffffffffffffffffffffff1673ffffffffffffffffffffffffffffffffffffffff163373ffffffffffffffffffffffffffffffffffffffff1614600c60008154811015156112a057fe5b9060005260206000200190151561136f576040517f08c379a000000000000000000000000000000000000000000000000000000000815260040180806020018281038252838181546001816001161561010002031660029004815260200191508054600181600116156101000203166002900480156113605780601f1061133557610100808354040283529160200191611360565b820191906000526020600020905b81548152906001019060200180831161134357829003601f168201915b50509250505060405180910390fd5b50600b600081548110151561138057fe5b90600052602060002001600890805460018160011615610100020316600290046113ab9291906124a9565b50565b6000809054906101000a900473ffffffffffffffffffffffffffffffffffffffff1681565b600160009054906101000a900473ffffffffffffffffffffffffffffffffffffffff1673ffffffffffffffffffffffffffffffffffffffff163373ffffffffffffffffffffffffffffffffffffffff1614600c600081548110151561143457fe5b90600052602060002001901515611503576040517f08c379a000000000000000000000000000000000000000000000000000000000815260040180806020018281038252838181546001816001161561010002031660029004815260200191508054600181600116156101000203166002900480156114f45780601f106114c9576101008083540402835291602001916114f4565b820191906000526020600020905b8154815290600101906020018083116114d757829003601f168201915b50509250505060405180910390fd5b50600a600081548110151561151457fe5b906000526020600020016007908054600181600116156101000203166002900461153f9291906124a9565b50565b6080604051908101604052806040805190810160405280601081526020017f50656e64696e6720536869706d656e740000000000000000000000000000000081525081526020016040805190810160405280600781526020017f496e20506f72740000000000000000000000000000000000000000000000000081525081526020016040805190810160405280600881526020017f53686970206f757400000000000000000000000000000000000000000000000081525081526020016040805190810160405280600981526020017f436f6c6c65637465640000000000000000000000000000000000000000000000815250815250600a906004611648929190612530565b506060604051908101604052806040805190810160405280600981526020017f526571756573746564000000000000000000000000000000000000000000000081525081526020016040805190810160405280600881526020017f416363657074656400000000000000000000000000000000000000000000000081525081526020016040805190810160405280600881526020017f52656a6563746564000000000000000000000000000000000000000000000000815250815250600b906003611714929190612590565b5060408051908101604052806040805190810160405280601881526020017f556e617574686f7269736564205472616e73616374696f6e00000000000000008152508152602001606060405190810160405280602881526020017f53656e742076616c756520646f6573206e6f7420657175616c20436f6e74726181526020017f63742056616c7565000000000000000000000000000000000000000000000000815250815250600c9060026117cb9291906125f0565b5085600160006101000a81548173ffffffffffffffffffffffffffffffffffffffff021916908373ffffffffffffffffffffffffffffffffffffffff16021790555084600260006101000a81548173ffffffffffffffffffffffffffffffffffffffff021916908373ffffffffffffffffffffffffffffffffffffffff16021790555083600360006101000a81548173ffffffffffffffffffffffffffffffffffffffff021916908373ffffffffffffffffffffffffffffffffffffffff16021790555082600560006101000a81548173ffffffffffffffffffffffffffffffffffffffff021916908373ffffffffffffffffffffffffffffffffffffffff16021790555081600460006101000a81548173ffffffffffffffffffffffffffffffffffffffff021916908373ffffffffffffffffffffffffffffffffffffffff16021790555061192381670de0b6b3a7640000612347565b600d819055506040805190810160405280600781526020017f64656661756c740000000000000000000000000000000000000000000000000081525060079080519060200190611974929190612650565b506040805190810160405280600781526020017f64656661756c7400000000000000000000000000000000000000000000000000815250600890805190602001906119c0929190612650565b506040805190810160405280600781526020017f64656661756c740000000000000000000000000000000000000000000000000081525060099080519060200190611a0c929190612650565b50602060405190810160405280600073ffffffffffffffffffffffffffffffffffffffff16815250601060008201518160000160006101000a81548173ffffffffffffffffffffffffffffffffffffffff021916908373ffffffffffffffffffffffffffffffffffffffff1602179055509050506040805190810160405280600073ffffffffffffffffffffffffffffffffffffffff16815260200182815250600e60008201518160000160006101000a81548173ffffffffffffffffffffffffffffffffffffffff021916908373ffffffffffffffffffffffffffffffffffffffff160217905550602082015181600101559050506040805190810160405280600015158152602001600073ffffffffffffffffffffffffffffffffffffffff16815250601160008201518160000160006101000a81548160ff02191690831515021790555060208201518160000160016101000a81548173ffffffffffffffffffffffffffffffffffffffff021916908373ffffffffffffffffffffffffffffffffffffffff1602179055509050506040805190810160405280600015158152602001600073ffffffffffffffffffffffffffffffffffffffff16815250601260008201518160000160006101000a81548160ff02191690831515021790555060208201518160000160016101000a81548173ffffffffffffffffffffffffffffffffffffffff021916908373ffffffffffffffffffffffffffffffffffffffff160217905550905050505050505050565b600560009054906101000a900473ffffffffffffffffffffffffffffffffffffffff1673ffffffffffffffffffffffffffffffffffffffff163373ffffffffffffffffffffffffffffffffffffffff1614600c6000815481101515611ca157fe5b90600052602060002001901515611d70576040517f08c379a00000000000000000000000000000000000000000000000000000000081526004018080602001828103825283818154600181600116156101000203166002900481526020019150805460018160011615610100020316600290048015611d615780601f10611d3657610100808354040283529160200191611d61565b820191906000526020600020905b815481529060010190602001808311611d4457829003601f168201915b50509250505060405180910390fd5b506001601260000160006101000a81548160ff02191690831515021790555033601260000160016101000a81548173ffffffffffffffffffffffffffffffffffffffff021916908373ffffffffffffffffffffffffffffffffffffffff160217905550565b3373ffffffffffffffffffffffffffffffffffffffff16600260009054906101000a900473ffffffffffffffffffffffffffffffffffffffff1673ffffffffffffffffffffffffffffffffffffffff16141515611f0457600c6000815481101515611e3c57fe5b906000526020600020016040517f08c379a00000000000000000000000000000000000000000000000000000000081526004018080602001828103825283818154600181600116156101000203166002900481526020019150805460018160011615610100020316600290048015611ef55780601f10611eca57610100808354040283529160200191611ef5565b820191906000526020600020905b815481529060010190602001808311611ed857829003601f168201915b50509250505060405180910390fd5b34600e60010154141515611fea57600c6000815481101515611f2257fe5b906000526020600020016040517f08c379a00000000000000000000000000000000000000000000000000000000081526004018080602001828103825283818154600181600116156101000203166002900481526020019150805460018160011615610100020316600290048015611fdb5780601f10611fb057610100808354040283529160200191611fdb565b820191906000526020600020905b815481529060010190602001808311611fbe57829003601f168201915b50509250505060405180910390fd5b600e60000160009054906101000a900473ffffffffffffffffffffffffffffffffffffffff1673ffffffffffffffffffffffffffffffffffffffff166108fc61203e61203734605d612347565b6064612385565b9081150290604051600060405180830381858888f19350505050158015612069573d6000803e3d6000fd5b50600560009054906101000a900473ffffffffffffffffffffffffffffffffffffffff1673ffffffffffffffffffffffffffffffffffffffff166108fc6120bb6120b4346001612347565b6064612385565b9081150290604051600060405180830381858888f193505050501580156120e6573d6000803e3d6000fd5b50600660009054906101000a900473ffffffffffffffffffffffffffffffffffffffff1673ffffffffffffffffffffffffffffffffffffffff166108fc612138612131346001612347565b6064612385565b9081150290604051600060405180830381858888f19350505050158015612163573d6000803e3d6000fd5b50600360009054906101000a900473ffffffffffffffffffffffffffffffffffffffff1673ffffffffffffffffffffffffffffffffffffffff166108fc6121b56121ae346001612347565b6064612385565b9081150290604051600060405180830381858888f193505050501580156121e0573d6000803e3d6000fd5b50600460009054906101000a900473ffffffffffffffffffffffffffffffffffffffff1673ffffffffffffffffffffffffffffffffffffffff166108fc61223261222b346002612347565b6064612385565b9081150290604051600060405180830381858888f1935050505015801561225d573d6000803e3d6000fd5b5033601060000160006101000a81548173ffffffffffffffffffffffffffffffffffffffff021916908373ffffffffffffffffffffffffffffffffffffffff160217905550600a60038154811015156122b257fe5b90600052602060002001600790805460018160011615610100020316600290046122dd9291906124a9565b50565b6000809054906101000a900473ffffffffffffffffffffffffffffffffffffffff1673ffffffffffffffffffffffffffffffffffffffff163373ffffffffffffffffffffffffffffffffffffffff1614151561233b57600080fd5b612344816123af565b50565b600080600084141561235c576000915061237e565b828402905082848281151561236d57fe5b0414151561237a57600080fd5b8091505b5092915050565b60008060008311151561239757600080fd5b82848115156123a257fe5b0490508091505092915050565b600073ffffffffffffffffffffffffffffffffffffffff168173ffffffffffffffffffffffffffffffffffffffff16141515156123eb57600080fd5b8073ffffffffffffffffffffffffffffffffffffffff166000809054906101000a900473ffffffffffffffffffffffffffffffffffffffff1673ffffffffffffffffffffffffffffffffffffffff167f8be0079c531659141344cd1fd0a4f28419497f9722a3daafe3b4186f6b6457e060405160405180910390a3806000806101000a81548173ffffffffffffffffffffffffffffffffffffffff021916908373ffffffffffffffffffffffffffffffffffffffff16021790555050565b828054600181600116156101000203166002900490600052602060002090601f016020900481019282601f106124e2578054855561251f565b8280016001018555821561251f57600052602060002091601f016020900482015b8281111561251e578254825591600101919060010190612503565b5b50905061252c91906126d0565b5090565b82805482825590600052602060002090810192821561257f579160200282015b8281111561257e57825182908051906020019061256e9291906126f5565b5091602001919060010190612550565b5b50905061258c9190612775565b5090565b8280548282559060005260206000209081019282156125df579160200282015b828111156125de5782518290805190602001906125ce9291906126f5565b50916020019190600101906125b0565b5b5090506125ec9190612775565b5090565b82805482825590600052602060002090810192821561263f579160200282015b8281111561263e57825182908051906020019061262e9291906126f5565b5091602001919060010190612610565b5b50905061264c9190612775565b5090565b828054600181600116156101000203166002900490600052602060002090601f016020900481019282601f1061269157805160ff19168380011785556126bf565b828001600101855582156126bf579182015b828111156126be5782518255916020019190600101906126a3565b5b5090506126cc91906126d0565b5090565b6126f291905b808211156126ee5760008160009055506001016126d6565b5090565b90565b828054600181600116156101000203166002900490600052602060002090601f016020900481019282601f1061273657805160ff1916838001178555612764565b82800160010185558215612764579182015b82811115612763578251825591602001919060010190612748565b5b50905061277191906126d0565b5090565b61279e91905b8082111561279a576000818161279191906127a1565b5060010161277b565b5090565b90565b50805460018160011615610100020316600290046000825580601f106127c757506127e6565b601f0160209004906000526020600020908101906127e591906126d0565b5b505600a165627a7a72305820b40232e05ab779a41dfd6b11254b2909180eb821b66436214639fb353b639d3a0029",
  "source": "pragma solidity ^0.4.24;\nimport \"./SafeMath.sol\";\nimport \"openzeppelin-solidity/contracts/ownership/Ownable.sol\";//usage of library\n\n\ncontract LetterOfCredit is Ownable{\n   \n    using SafeMath for uint256;\n    \n    address exporter;\n    address importer;\n    address shipper;\n    address issuingBank;\n    address inspectorForBuyer;\n    address inspectorForSeller;\n    string shipmentStatus; \n    string inspectionForExporterStatus;\n    string inspectionForImporterStatus;\n    string[] shipmentStatusArray;\n    string[] inspectionForExporterStatusArray;\n    string[] errMsg;\n    uint256 contractPrice;\n    BillOfExchange public boe; \n    BillOfLading public bol;\n    CertificateOfInspection coiFromExporter;\n    CertificateOfInspection coiFromImporter;\n    \n   /// event PaymentMade(uint paymentAmt, address payer);\n   /// event CertificationDone(bool certified, address sig);\n                                            \n    struct BillOfExchange {\n        address holder;\n        uint256 contractPrice; \n    }\n\n    struct BillOfLading {\n        address holder;\n    }\n\n    struct CertificateOfInspection {\n        bool certified;\n        address signature;\n    }\n\n    constructor() public {\n    }\n\n\n    function createBOE(address exporterAddr, address importerAddr, address shipperAddr, address inspectorAddr, address issuingBankAddr, uint256 contractVal) public {\n        \n        shipmentStatusArray = [\"Pending Shipment\", \"In Port\", \"Ship out\", \"Collected\"];\n        inspectionForExporterStatusArray=[\"Requested\",\"Accepted\",\"Rejected\"];\n\n        \n        errMsg = [  \n                    \"Unauthorised Transaction\",                                 //errMsg[0]\n                    \"Sent value does not equal Contract Value\"                 //errMsg[1]\n                ];\n\n        exporter = exporterAddr; \n        importer = importerAddr; \n        shipper = shipperAddr;\n        inspectorForBuyer = inspectorAddr;\n        issuingBank=issuingBankAddr;\n\n        contractPrice = SafeMath.mul(contractVal, 1 ether); // Stores ether value as wei \n        shipmentStatus = \"default\";\n        inspectionForExporterStatus=\"default\";\n        inspectionForImporterStatus=\"default\";\n\n\n        bol = BillOfLading ({\n            holder: 0\n        });\n        \n        boe = BillOfExchange({\n            holder: 0,\n            contractPrice: contractVal\n        });\n        \n        coiFromExporter = CertificateOfInspection({\n            certified: false,\n            signature: 0\n        });\n\n        coiFromImporter = CertificateOfInspection({\n            certified: false,\n            signature: 0\n        });\n\n    }\n\n    /// Issuing bank issues letter of credit///\n    function issueLetterOfCredit() public payable {\n        require(msg.sender==issuingBank,errMsg[0]);\n        boe.holder = exporter;\n    }\n\n    /// Exporter requests inspection ///\n    function requestInspection() public {\n        require(msg.sender==exporter,errMsg[0]);\n        inspectionForExporterStatus=inspectionForExporterStatusArray[0];\n    }\n    /// Inspector accepts inspection ///\n    function acceptInspectionForExporter() public {\n        require(equal(inspectionForExporterStatus,\"Requested\"),errMsg[0]);\n        inspectionForExporterStatus=inspectionForExporterStatusArray[1];\n        /// To do: inspectorForSeller = grab from frontend\n    }\n\n   /// Inspector for exporter inspects ///\n    function certifyCertOfInspectionForExporter() public {\n        require(equal(inspectionForExporterStatus,\"Accepted\") && msg.sender==inspectorForSeller,errMsg[0]);\n        coiFromExporter.certified=true;\n        coiFromExporter.signature=msg.sender;\n       \n       /// emit CertificationDone(coiFromExporter.certified,coiFromExporter.signature);\n    }\n\n    /// Exportor requests shipment ///\n    function requestForShipment() public {\n        require(msg.sender==exporter,errMsg[0]);\n        shipmentStatus = shipmentStatusArray[0]; \n    }\n    \n    /// Shipper accepts shipment and assign exporter to bol holder///\n    function acceptShipment() public {\n        require(equal(shipmentStatus,\"Pending Shipment\") && msg.sender == shipper,errMsg[0]);\n        shipmentStatus = shipmentStatusArray[1]; \n        bol.holder=exporter;  \n        \n    }\n\n    /// After shipper ship out the goods, changes the goods status to \"Ship out\". ///\n    function completeShipment() public{\n        require(equal(shipmentStatus,\"Ship out\") && msg.sender == shipper,errMsg[0]);\n        shipmentStatus = shipmentStatusArray[2];         \n    }\n\n\n    /// Inspector for importer inspects ///\n    function certifyCertOfInspectionForImporter() public {\n\n\t\trequire(msg.sender==inspectorForBuyer,errMsg[0]);\n    \n        coiFromImporter.certified=true;\n        coiFromImporter.signature=msg.sender;\n     ///   emit CertificationDone(coiFromImporter.certified,coiFromImporter.signature);\n    }\n\n    /// Importer makes payment\n    function makePayment() public payable{\n           \n        if(importer!=msg.sender){\n            revert(errMsg[0]);\n        }\n        if(boe.contractPrice!=msg.value){\n            revert(errMsg[0]);\n        }     \n      \n        /// pay exporter 93%\n        boe.holder.transfer(SafeMath.div(SafeMath.mul(msg.value,93),100));\n        /// pay inspectorForBuyer 1%\n        inspectorForBuyer.transfer(SafeMath.div(SafeMath.mul(msg.value,1),100));\n        /// pay inspectorForSeller 1%\n        inspectorForSeller.transfer(SafeMath.div(SafeMath.mul(msg.value,1),100));\n        /// pay shipper 1%\n        shipper.transfer(SafeMath.div(SafeMath.mul(msg.value,1),100));\n        /// pay issuing bank 2%\n        issuingBank.transfer(SafeMath.div(SafeMath.mul(msg.value,2),100));\n        /// To do: withdraw function 2% to smart contract\n        bol.holder=msg.sender;\n        shipmentStatus = shipmentStatusArray[3];  \n        ///emit PaymentMade(msg.value, msg.sender);\n    } \n\n\n    function getBalance() public view returns (uint256) {\n        return address(this).balance;\n    }\n    \n    function equal(string _a, string _b) public pure returns (bool) {\n        bytes memory a = bytes(_a);\n        bytes memory b = bytes(_b);\n\n        return keccak256(a) == keccak256(b) ;\n    }\n\n}",
  "sourcePath": "D:\\SMU\\Corporate Banking and Blockchain\\A2\\blockchain\\Inter-Bank Bill Of Exchange\\contracts\\LetterOfCredit.sol",
  "compiler": {
    "name": "solc",
    "version": "0.4.24+commit.e67f0147.Emscripten.clang"
  },
  "schemaVersion": "2.0.1",
  "updatedAt": "2018-10-23T11:08:23.749Z"
}