{
  "contractName": "Loan",
  "abi": [
    {
      "constant": true,
      "inputs": [
        {
          "name": "",
          "type": "uint256"
        }
      ],
      "name": "bid",
      "outputs": [
        {
          "name": "biddingAddress",
          "type": "address"
        },
        {
          "name": "interestRate",
          "type": "uint256"
        }
      ],
      "payable": false,
      "stateMutability": "view",
      "type": "function"
    },
    {
      "constant": false,
      "inputs": [],
      "name": "renounceOwnership",
      "outputs": [],
      "payable": false,
      "stateMutability": "nonpayable",
      "type": "function"
    },
    {
      "constant": true,
      "inputs": [],
      "name": "winningBid",
      "outputs": [
        {
          "name": "loaningBank",
          "type": "address"
        },
        {
          "name": "interestRate",
          "type": "uint256"
        },
        {
          "name": "issued",
          "type": "bool"
        },
        {
          "name": "paid",
          "type": "bool"
        }
      ],
      "payable": false,
      "stateMutability": "view",
      "type": "function"
    },
    {
      "constant": true,
      "inputs": [],
      "name": "owner",
      "outputs": [
        {
          "name": "",
          "type": "address"
        }
      ],
      "payable": false,
      "stateMutability": "view",
      "type": "function"
    },
    {
      "constant": false,
      "inputs": [
        {
          "name": "_newOwner",
          "type": "address"
        }
      ],
      "name": "transferOwnership",
      "outputs": [],
      "payable": false,
      "stateMutability": "nonpayable",
      "type": "function"
    },
    {
      "inputs": [],
      "payable": false,
      "stateMutability": "nonpayable",
      "type": "constructor"
    },
    {
      "anonymous": false,
      "inputs": [
        {
          "indexed": true,
          "name": "previousOwner",
          "type": "address"
        }
      ],
      "name": "OwnershipRenounced",
      "type": "event"
    },
    {
      "anonymous": false,
      "inputs": [
        {
          "indexed": true,
          "name": "previousOwner",
          "type": "address"
        },
        {
          "indexed": true,
          "name": "newOwner",
          "type": "address"
        }
      ],
      "name": "OwnershipTransferred",
      "type": "event"
    },
    {
      "constant": false,
      "inputs": [
        {
          "name": "exporterAddr",
          "type": "address"
        },
        {
          "name": "loanAmountVal",
          "type": "uint256"
        },
        {
          "name": "letterOfCreditAddr",
          "type": "address"
        }
      ],
      "name": "createLoan",
      "outputs": [],
      "payable": false,
      "stateMutability": "nonpayable",
      "type": "function"
    },
    {
      "constant": false,
      "inputs": [
        {
          "name": "interestRate",
          "type": "uint256"
        }
      ],
      "name": "bidForLoan",
      "outputs": [],
      "payable": true,
      "stateMutability": "payable",
      "type": "function"
    },
    {
      "constant": false,
      "inputs": [],
      "name": "processWinningBid",
      "outputs": [],
      "payable": false,
      "stateMutability": "nonpayable",
      "type": "function"
    },
    {
      "constant": false,
      "inputs": [],
      "name": "issueLoan",
      "outputs": [],
      "payable": true,
      "stateMutability": "payable",
      "type": "function"
    },
    {
      "constant": false,
      "inputs": [],
      "name": "repayLoan",
      "outputs": [],
      "payable": true,
      "stateMutability": "payable",
      "type": "function"
    },
    {
      "constant": false,
      "inputs": [
        {
          "name": "interest",
          "type": "uint256"
        }
      ],
      "name": "testFunc",
      "outputs": [],
      "payable": true,
      "stateMutability": "payable",
      "type": "function"
    },
    {
      "constant": true,
      "inputs": [],
      "name": "retrieveExporter",
      "outputs": [
        {
          "name": "",
          "type": "address"
        }
      ],
      "payable": false,
      "stateMutability": "view",
      "type": "function"
    },
    {
      "constant": true,
      "inputs": [],
      "name": "retrieveLetterOfCreditAddress",
      "outputs": [
        {
          "name": "",
          "type": "address"
        }
      ],
      "payable": false,
      "stateMutability": "view",
      "type": "function"
    },
    {
      "constant": true,
      "inputs": [],
      "name": "retrieveRepaymentAmount",
      "outputs": [
        {
          "name": "",
          "type": "uint256"
        }
      ],
      "payable": false,
      "stateMutability": "view",
      "type": "function"
    },
    {
      "constant": true,
      "inputs": [],
      "name": "retrieveLoanAmount",
      "outputs": [
        {
          "name": "",
          "type": "uint256"
        }
      ],
      "payable": false,
      "stateMutability": "view",
      "type": "function"
    },
    {
      "constant": true,
      "inputs": [],
      "name": "retrieveLoaningBank",
      "outputs": [
        {
          "name": "",
          "type": "address"
        }
      ],
      "payable": false,
      "stateMutability": "view",
      "type": "function"
    },
    {
      "constant": true,
      "inputs": [],
      "name": "retrieveBiddingStatus",
      "outputs": [
        {
          "name": "",
          "type": "string"
        }
      ],
      "payable": false,
      "stateMutability": "view",
      "type": "function"
    },
    {
      "constant": true,
      "inputs": [],
      "name": "retrieveIssue",
      "outputs": [
        {
          "name": "",
          "type": "bool"
        }
      ],
      "payable": false,
      "stateMutability": "view",
      "type": "function"
    },
    {
      "constant": true,
      "inputs": [],
      "name": "retrievePaid",
      "outputs": [
        {
          "name": "",
          "type": "bool"
        }
      ],
      "payable": false,
      "stateMutability": "view",
      "type": "function"
    }
  ],
  "bytecode": "0x608060405234801561001057600080fd5b50336000806101000a81548173ffffffffffffffffffffffffffffffffffffffff021916908373ffffffffffffffffffffffffffffffffffffffff160217905550612202806100606000396000f300608060405260043610610107576000357c0100000000000000000000000000000000000000000000000000000000900463ffffffff1680630b6c886b1461010c578063237cf95b1461013b578063285a80d414610192578063454a2ab3146101bd5780635c0df55b146102315780636a3d9d351461023b5780636fb8d7361461025b578063715018a6146102b257806388eb2fcc146102c95780638cf80438146103205780638da5cb5b14610394578063a0c76cda146103eb578063af11990514610402578063c6b060cd1461046f578063cb4955421461049a578063cc5510e2146104ba578063ef4789af146104e9578063f2fde38b14610579578063f966ade7146105bc575b600080fd5b34801561011857600080fd5b506101216105c6565b604051808215151515815260200191505060405180910390f35b34801561014757600080fd5b506101506105e0565b604051808273ffffffffffffffffffffffffffffffffffffffff1673ffffffffffffffffffffffffffffffffffffffff16815260200191505060405180910390f35b34801561019e57600080fd5b506101a761060a565b6040518082815260200191505060405180910390f35b3480156101c957600080fd5b506101e860048036038101908080359060200190929190505050610614565b604051808373ffffffffffffffffffffffffffffffffffffffff1673ffffffffffffffffffffffffffffffffffffffff1681526020018281526020019250505060405180910390f35b610239610667565b005b61025960048036038101908080359060200190929190505050610c29565b005b34801561026757600080fd5b50610270610c33565b604051808273ffffffffffffffffffffffffffffffffffffffff1673ffffffffffffffffffffffffffffffffffffffff16815260200191505060405180910390f35b3480156102be57600080fd5b506102c7610c5d565b005b3480156102d557600080fd5b506102de610d5f565b604051808273ffffffffffffffffffffffffffffffffffffffff1673ffffffffffffffffffffffffffffffffffffffff16815260200191505060405180910390f35b34801561032c57600080fd5b50610335610d8c565b604051808573ffffffffffffffffffffffffffffffffffffffff1673ffffffffffffffffffffffffffffffffffffffff168152602001848152602001831515151581526020018215151515815260200194505050505060405180910390f35b3480156103a057600080fd5b506103a9610de4565b604051808273ffffffffffffffffffffffffffffffffffffffff1673ffffffffffffffffffffffffffffffffffffffff16815260200191505060405180910390f35b3480156103f757600080fd5b50610400610e09565b005b34801561040e57600080fd5b5061046d600480360381019080803573ffffffffffffffffffffffffffffffffffffffff16906020019092919080359060200190929190803573ffffffffffffffffffffffffffffffffffffffff169060200190929190505050611283565b005b34801561047b57600080fd5b50610484611530565b6040518082815260200191505060405180910390f35b6104b860048036038101908080359060200190929190505050611548565b005b3480156104c657600080fd5b506104cf61184a565b604051808215151515815260200191505060405180910390f35b3480156104f557600080fd5b506104fe611864565b6040518080602001828103825283818151815260200191508051906020019080838360005b8381101561053e578082015181840152602081019050610523565b50505050905090810190601f16801561056b5780820380516001836020036101000a031916815260200191505b509250505060405180910390f35b34801561058557600080fd5b506105ba600480360381019080803573ffffffffffffffffffffffffffffffffffffffff169060200190929190505050611906565b005b6105c461196d565b005b6000600a60020160009054906101000a900460ff16905090565b6000600160009054906101000a900473ffffffffffffffffffffffffffffffffffffffff16905090565b6000600354905090565b60098181548110151561062357fe5b90600052602060002090600202016000915090508060000160009054906101000a900473ffffffffffffffffffffffffffffffffffffffff16908060010154905082565b6107bd60048054600181600116156101000203166002900480601f0160208091040260200160405190810160405280929190818152602001828054600181600116156101000203166002900480156107005780601f106106d557610100808354040283529160200191610700565b820191906000526020600020905b8154815290600101906020018083116106e357829003601f168201915b50505050506006600181548110151561071557fe5b906000526020600020018054600181600116156101000203166002900480601f0160208091040260200160405190810160405280929190818152602001828054600181600116156101000203166002900480156107b35780601f10610788576101008083540402835291602001916107b3565b820191906000526020600020905b81548152906001019060200180831161079657829003601f168201915b5050505050611d09565b151561089b57600560008154811015156107d357fe5b906000526020600020016040517f08c379a0000000000000000000000000000000000000000000000000000000008152600401808060200182810382528381815460018160011615610100020316600290048152602001915080546001816001161561010002031660029004801561088c5780601f106108615761010080835404028352916020019161088c565b820191906000526020600020905b81548152906001019060200180831161086f57829003601f168201915b50509250505060405180910390fd5b600a60020160009054906101000a900460ff161561098b57600560008154811015156108c357fe5b906000526020600020016040517f08c379a0000000000000000000000000000000000000000000000000000000008152600401808060200182810382528381815460018160011615610100020316600290048152602001915080546001816001161561010002031660029004801561097c5780601f106109515761010080835404028352916020019161097c565b820191906000526020600020905b81548152906001019060200180831161095f57829003601f168201915b50509250505060405180910390fd5b600a60000160009054906101000a900473ffffffffffffffffffffffffffffffffffffffff1673ffffffffffffffffffffffffffffffffffffffff163373ffffffffffffffffffffffffffffffffffffffff16141515610abd57600560008154811015156109f557fe5b906000526020600020016040517f08c379a00000000000000000000000000000000000000000000000000000000081526004018080602001828103825283818154600181600116156101000203166002900481526020019150805460018160011615610100020316600290048015610aae5780601f10610a8357610100808354040283529160200191610aae565b820191906000526020600020905b815481529060010190602001808311610a9157829003601f168201915b50509250505060405180910390fd5b60035434141515610ba05760056001815481101515610ad857fe5b906000526020600020016040517f08c379a00000000000000000000000000000000000000000000000000000000081526004018080602001828103825283818154600181600116156101000203166002900481526020019150805460018160011615610100020316600290048015610b915780601f10610b6657610100808354040283529160200191610b91565b820191906000526020600020905b815481529060010190602001808311610b7457829003601f168201915b50509250505060405180910390fd5b600160009054906101000a900473ffffffffffffffffffffffffffffffffffffffff1673ffffffffffffffffffffffffffffffffffffffff166108fc349081150290604051600060405180830381858888f19350505050158015610c08573d6000803e3d6000fd5b506001600a60020160006101000a81548160ff021916908315150217905550565b80600d8190555050565b6000600260009054906101000a900473ffffffffffffffffffffffffffffffffffffffff16905090565b6000809054906101000a900473ffffffffffffffffffffffffffffffffffffffff1673ffffffffffffffffffffffffffffffffffffffff163373ffffffffffffffffffffffffffffffffffffffff16141515610cb857600080fd5b6000809054906101000a900473ffffffffffffffffffffffffffffffffffffffff1673ffffffffffffffffffffffffffffffffffffffff167ff8df31144d9c2f0f6b59d69b8b98abd5459d07f2742c4df920b25aae33c6482060405160405180910390a260008060006101000a81548173ffffffffffffffffffffffffffffffffffffffff021916908373ffffffffffffffffffffffffffffffffffffffff160217905550565b6000600a60000160009054906101000a900473ffffffffffffffffffffffffffffffffffffffff16905090565b600a8060000160009054906101000a900473ffffffffffffffffffffffffffffffffffffffff16908060010154908060020160009054906101000a900460ff16908060020160019054906101000a900460ff16905084565b6000809054906101000a900473ffffffffffffffffffffffffffffffffffffffff1681565b600080600080610f6560048054600181600116156101000203166002900480601f016020809104026020016040519081016040528092919081815260200182805460018160011615610100020316600290048015610ea85780601f10610e7d57610100808354040283529160200191610ea8565b820191906000526020600020905b815481529060010190602001808311610e8b57829003601f168201915b505050505060066000815481101515610ebd57fe5b906000526020600020018054600181600116156101000203166002900480601f016020809104026020016040519081016040528092919081815260200182805460018160011615610100020316600290048015610f5b5780601f10610f3057610100808354040283529160200191610f5b565b820191906000526020600020905b815481529060010190602001808311610f3e57829003601f168201915b5050505050611d09565b60056004815481101515610f7557fe5b90600052602060002001901515611044576040517f08c379a000000000000000000000000000000000000000000000000000000000815260040180806020018281038252838181546001816001161561010002031660029004815260200191508054600181600116156101000203166002900480156110355780601f1061100a57610100808354040283529160200191611035565b820191906000526020600020905b81548152906001019060200180831161101857829003601f168201915b50509250505060405180910390fd5b50600091506006600181548110151561105957fe5b9060005260206000200160049080546001816001161561010002031660029004611084929190611f46565b50600090505b6009805490508110156111a957811561113157836009828154811015156110ad57fe5b906000526020600020906002020160010154101561112c576009818154811015156110d457fe5b90600052602060002090600202016001015493506009818154811015156110f757fe5b906000526020600020906002020160000160009054906101000a900473ffffffffffffffffffffffffffffffffffffffff1692505b61119c565b60098181548110151561114057fe5b906000526020600020906002020160010154935060098181548110151561116357fe5b906000526020600020906002020160000160009054906101000a900473ffffffffffffffffffffffffffffffffffffffff169250600191505b808060010191505061108a565b6080604051908101604052808473ffffffffffffffffffffffffffffffffffffffff16815260200185815260200160001515815260200160001515815250600a60008201518160000160006101000a81548173ffffffffffffffffffffffffffffffffffffffff021916908373ffffffffffffffffffffffffffffffffffffffff1602179055506020820151816001015560408201518160020160006101000a81548160ff02191690831515021790555060608201518160020160016101000a81548160ff02191690831515021790555090505050505050565b60408051908101604052806040805190810160405280600781526020017f537461727465640000000000000000000000000000000000000000000000000081525081526020016040805190810160405280600681526020017f436c6f73656400000000000000000000000000000000000000000000000000008152508152506006906002611312929190611fcd565b5060a0604051908101604052806040805190810160405280601881526020017f556e617574686f72697a6564205472616e73616374696f6e000000000000000081525081526020016040805190810160405280601781526020017f4c6f616e2076616c756520646f206e6f74206d6174636800000000000000000081525081526020016040805190810160405280601281526020017f5472616e73616374696f6e204661696c6564000000000000000000000000000081525081526020016040805190810160405280601681526020017f5472616e73616374696f6e205375636365737366756c0000000000000000000081525081526020016040805190810160405280601481526020017f556e617574686f72697a656420436f6d6d616e64000000000000000000000000815250815250600590600561145492919061202d565b5082600160006101000a81548173ffffffffffffffffffffffffffffffffffffffff021916908373ffffffffffffffffffffffffffffffffffffffff16021790555080600260006101000a81548173ffffffffffffffffffffffffffffffffffffffff021916908373ffffffffffffffffffffffffffffffffffffffff1602179055506114e982670de0b6b3a7640000611ded565b600381905550600660008154811015156114ff57fe5b906000526020600020016004908054600181600116156101000203166002900461152a929190611f46565b50505050565b6000611543600354600a60010154611e2b565b905090565b61155061208d565b6116a660048054600181600116156101000203166002900480601f0160208091040260200160405190810160405280929190818152602001828054600181600116156101000203166002900480156115e95780601f106115be576101008083540402835291602001916115e9565b820191906000526020600020905b8154815290600101906020018083116115cc57829003601f168201915b5050505050600660008154811015156115fe57fe5b906000526020600020018054600181600116156101000203166002900480601f01602080910402602001604051908101604052809291908181526020018280546001816001161561010002031660029004801561169c5780601f106116715761010080835404028352916020019161169c565b820191906000526020600020905b81548152906001019060200180831161167f57829003601f168201915b5050505050611d09565b600560048154811015156116b657fe5b90600052602060002001901515611785576040517f08c379a000000000000000000000000000000000000000000000000000000000815260040180806020018281038252838181546001816001161561010002031660029004815260200191508054600181600116156101000203166002900480156117765780601f1061174b57610100808354040283529160200191611776565b820191906000526020600020905b81548152906001019060200180831161175957829003601f168201915b50509250505060405180910390fd5b5060408051908101604052803373ffffffffffffffffffffffffffffffffffffffff1681526020016117bf84670de0b6b3a7640000611ded565b81525090506009819080600181540180825580915050906001820390600052602060002090600202016000909192909190915060008201518160000160006101000a81548173ffffffffffffffffffffffffffffffffffffffff021916908373ffffffffffffffffffffffffffffffffffffffff160217905550602082015181600101555050505050565b6000600a60020160019054906101000a900460ff16905090565b606060048054600181600116156101000203166002900480601f0160208091040260200160405190810160405280929190818152602001828054600181600116156101000203166002900480156118fc5780601f106118d1576101008083540402835291602001916118fc565b820191906000526020600020905b8154815290600101906020018083116118df57829003601f168201915b5050505050905090565b6000809054906101000a900473ffffffffffffffffffffffffffffffffffffffff1673ffffffffffffffffffffffffffffffffffffffff163373ffffffffffffffffffffffffffffffffffffffff1614151561196157600080fd5b61196a81611e4c565b50565b600160009054906101000a900473ffffffffffffffffffffffffffffffffffffffff1673ffffffffffffffffffffffffffffffffffffffff163373ffffffffffffffffffffffffffffffffffffffff16141515611a9c57600560008154811015156119d457fe5b906000526020600020016040517f08c379a00000000000000000000000000000000000000000000000000000000081526004018080602001828103825283818154600181600116156101000203166002900481526020019150805460018160011615610100020316600290048015611a8d5780601f10611a6257610100808354040283529160200191611a8d565b820191906000526020600020905b815481529060010190602001808311611a7057829003601f168201915b50509250505060405180910390fd5b600a60020160019054906101000a900460ff1615611b8c5760056000815481101515611ac457fe5b906000526020600020016040517f08c379a00000000000000000000000000000000000000000000000000000000081526004018080602001828103825283818154600181600116156101000203166002900481526020019150805460018160011615610100020316600290048015611b7d5780601f10611b5257610100808354040283529160200191611b7d565b820191906000526020600020905b815481529060010190602001808311611b6057829003601f168201915b50509250505060405180910390fd5b611b9d600354600a60010154611e2b565b34141515611c7d5760056001815481101515611bb557fe5b906000526020600020016040517f08c379a00000000000000000000000000000000000000000000000000000000081526004018080602001828103825283818154600181600116156101000203166002900481526020019150805460018160011615610100020316600290048015611c6e5780601f10611c4357610100808354040283529160200191611c6e565b820191906000526020600020905b815481529060010190602001808311611c5157829003601f168201915b50509250505060405180910390fd5b600a60000160009054906101000a900473ffffffffffffffffffffffffffffffffffffffff1673ffffffffffffffffffffffffffffffffffffffff166108fc349081150290604051600060405180830381858888f19350505050158015611ce8573d6000803e3d6000fd5b506001600a60020160016101000a81548160ff021916908315150217905550565b6000606080849150839050806040518082805190602001908083835b602083101515611d4a5780518252602082019150602081019050602083039250611d25565b6001836020036101000a038019825116818451168082178552505050505050905001915050604051809103902060001916826040518082805190602001908083835b602083101515611db15780518252602082019150602081019050602083039250611d8c565b6001836020036101000a038019825116818451168082178552505050505050905001915050604051809103902060001916149250505092915050565b6000806000841415611e025760009150611e24565b8284029050828482811515611e1357fe5b04141515611e2057600080fd5b8091505b5092915050565b6000808284019050838110151515611e4257600080fd5b8091505092915050565b600073ffffffffffffffffffffffffffffffffffffffff168173ffffffffffffffffffffffffffffffffffffffff1614151515611e8857600080fd5b8073ffffffffffffffffffffffffffffffffffffffff166000809054906101000a900473ffffffffffffffffffffffffffffffffffffffff1673ffffffffffffffffffffffffffffffffffffffff167f8be0079c531659141344cd1fd0a4f28419497f9722a3daafe3b4186f6b6457e060405160405180910390a3806000806101000a81548173ffffffffffffffffffffffffffffffffffffffff021916908373ffffffffffffffffffffffffffffffffffffffff16021790555050565b828054600181600116156101000203166002900490600052602060002090601f016020900481019282601f10611f7f5780548555611fbc565b82800160010185558215611fbc57600052602060002091601f016020900482015b82811115611fbb578254825591600101919060010190611fa0565b5b509050611fc991906120bd565b5090565b82805482825590600052602060002090810192821561201c579160200282015b8281111561201b57825182908051906020019061200b9291906120e2565b5091602001919060010190611fed565b5b5090506120299190612162565b5090565b82805482825590600052602060002090810192821561207c579160200282015b8281111561207b57825182908051906020019061206b9291906120e2565b509160200191906001019061204d565b5b5090506120899190612162565b5090565b6040805190810160405280600073ffffffffffffffffffffffffffffffffffffffff168152602001600081525090565b6120df91905b808211156120db5760008160009055506001016120c3565b5090565b90565b828054600181600116156101000203166002900490600052602060002090601f016020900481019282601f1061212357805160ff1916838001178555612151565b82800160010185558215612151579182015b82811115612150578251825591602001919060010190612135565b5b50905061215e91906120bd565b5090565b61218b91905b80821115612187576000818161217e919061218e565b50600101612168565b5090565b90565b50805460018160011615610100020316600290046000825580601f106121b457506121d3565b601f0160209004906000526020600020908101906121d291906120bd565b5b505600a165627a7a72305820966071e96b13189f7ebed295bc23e4d679a76c8efda3a382f92cf783c557d12b0029",
  "source": "pragma solidity ^0.4.24;\r\n\r\nimport \"./SafeMath.sol\";\r\nimport \"openzeppelin-solidity/contracts/ownership/Ownable.sol\";//usage of library\r\n\r\ncontract Loan is Ownable {\r\n    using SafeMath for uint256;\r\n    \r\n    address exporter;\r\n    address letterOfCredit;\r\n    uint256 loanAmount;\r\n    string biddingStatus;\r\n    string[] errMsg;\r\n    string[] biddingStatusArray;\r\n\r\n    address[] biddingBanks;\r\n    uint256[] biddingInterestRate;\r\n    \r\n    Bid[] public bid;\r\n    struct Bid{\r\n        address biddingAddress;\r\n        uint256 interestRate;\r\n    }\r\n    \r\n    WinningBid public winningBid;\r\n    struct WinningBid {\r\n        address loaningBank;\r\n        uint256 interestRate;\r\n        bool issued;\r\n        bool paid;\r\n    }\r\n        \r\n    constructor() public{\r\n        \r\n    }\r\n        \r\n    function createLoan(address exporterAddr, uint256 loanAmountVal, address letterOfCreditAddr) public{\r\n        biddingStatusArray = [\"Started\",\"Closed\"];\r\n        errMsg = [\r\n                \"Unauthorized Transaction\",//0\r\n                \"Loan value do not match\", //1\r\n                \"Transaction Failed\",      //2\r\n                \"Transaction Successful\",  //3\r\n                \"Unauthorized Command\"     //4\r\n            ];\r\n        exporter = exporterAddr;\r\n        letterOfCredit = letterOfCreditAddr; //removed temporary for easy testing..\r\n        loanAmount = SafeMath.mul(loanAmountVal, 1 ether);\r\n        biddingStatus = biddingStatusArray[0];\r\n     \r\n        \r\n      \r\n    }\r\n\r\n    function bidForLoan(uint256 interestRate) public payable{\r\n        require(equal(biddingStatus,biddingStatusArray[0]),errMsg[4]); //Requires to be started\r\n        Bid memory current = Bid(msg.sender, SafeMath.mul(interestRate,1 ether));\r\n        bid.push(current);\r\n        \r\n    }\r\n    \r\n    function processWinningBid() public{\r\n        require(equal(biddingStatus, biddingStatusArray[0]), errMsg[4]); //must be started then execute\r\n        uint256 lowestRate;\r\n        address winningBank;\r\n        bool initialize = false;\r\n        biddingStatus = biddingStatusArray[1]; //Closed\r\n        for(uint i = 0; i < bid.length; i++){\r\n            if(initialize){\r\n                if(bid[i].interestRate < lowestRate){\r\n                    lowestRate = bid[i].interestRate;\r\n                    winningBank = bid[i].biddingAddress;\r\n                }\r\n            }else{\r\n                lowestRate = bid[i].interestRate;\r\n                winningBank = bid[i].biddingAddress;\r\n                initialize = true;\r\n            }\r\n        }\r\n\r\n        winningBid = WinningBid(winningBank, lowestRate, false, false);\r\n\r\n    }\r\n\r\n\r\n    function issueLoan() public payable{\r\n        if(!equal(biddingStatus,biddingStatusArray[1])){\r\n            revert(errMsg[0]);\r\n        }else if(winningBid.issued){\r\n            revert(errMsg[0]);\r\n        }else if(msg.sender != winningBid.loaningBank){\r\n            revert(errMsg[0]);\r\n        }else if(msg.value != loanAmount){\r\n            revert(errMsg[1]);\r\n        }\r\n        \r\n        \r\n        exporter.transfer(msg.value); //xfer loan to exporter\r\n        winningBid.issued = true; //set issued to true\r\n  \r\n    }\r\n    \r\n    function repayLoan() public payable{\r\n        if(msg.sender != exporter){\r\n            revert(errMsg[0]);\r\n        }else if(winningBid.paid){\r\n            revert(errMsg[0]);\r\n        }else if(msg.value != SafeMath.add(loanAmount, winningBid.interestRate)){\r\n            revert(errMsg[1]);\r\n        }\r\n        \r\n        winningBid.loaningBank.transfer(msg.value);\r\n        winningBid.paid = true;\r\n        \r\n    }\r\n    \r\n    uint256 data;\r\n    function testFunc(uint256 interest) public payable{\r\n        data = interest;\r\n    }\r\n    \r\n    \r\n        \r\n    //Getters - constant doesn't modifiy state\r\n    function retrieveExporter() public view returns  (address){\r\n        return exporter;\r\n    }\r\n    \r\n    function retrieveLetterOfCreditAddress() public view returns  (address){\r\n        return letterOfCredit;\r\n    }\r\n\r\n\r\n    function retrieveRepaymentAmount() public view returns  (uint256){\r\n        return SafeMath.add(loanAmount, winningBid.interestRate);\r\n    }\r\n    \r\n    function retrieveLoanAmount() public view returns  (uint256){\r\n        return loanAmount;\r\n    }\r\n    \r\n    function retrieveLoaningBank() public view returns  (address){\r\n        return winningBid.loaningBank;\r\n    }\r\n    \r\n    \r\n    function retrieveBiddingStatus() public view returns  (string){\r\n        return biddingStatus;\r\n    }\r\n    \r\n    \r\n    function equal(string _a, string _b) private pure returns (bool) {\r\n        bytes memory a = bytes(_a);\r\n        bytes memory b = bytes(_b);\r\n        return keccak256(a) == keccak256(b) ;\r\n    }\r\n\t\r\n\tfunction retrieveIssue() public view returns  (bool){\r\n        return winningBid.issued;\r\n    }\r\n\t\r\n\tfunction retrievePaid() public view returns  (bool){\r\n        return winningBid.paid;\r\n    }\r\n\t\r\n\t\r\n\r\n    \r\n}",
  "sourcePath": "C:\\Users\\ZhenDan\\Desktop\\BC\\blockchain\\Inter-Bank Bill Of Exchange\\contracts\\Loan.sol",
  "compiler": {
    "name": "solc",
    "version": "0.4.24+commit.e67f0147.Emscripten.clang"
  },
  "schemaVersion": "2.0.1",
  "updatedAt": "2018-11-03T03:57:03.829Z"
}